:020000040800F2
:1000000058200020BD0B0008450B0008470B0008D6
:10001000490B00084B0B00084D0B000800000000C6
:100020000000000000000000000000004F0B00086E
:10003000510B000800000000530B0008550B00088E
:10004000CD0B0008D10B0008D50B0008D90B000818
:10005000DD0B0008E10B0008E50B0008E90B0008C8
:10006000ED0B0008F10B0008F50B0008F90B000878
:10007000FD0B0008010C0008050C0008090C000825
:100080000D0C0008110C0008150C0008190C0008D4
:100090001D0C0008210C0008250C0008290C000884
:1000A0002D0C0008310C0008350C0008390C000834
:1000B0003D0C0008410C000867050008450C0008CD
:1000C000490C00084D0C0008510C0008550C0008A4
:1000D000590C00085D0C0008950A0008610C000826
:1000E000650C0008690C00086D0C0008710C000814
:1000F000750C0008790C00087D0C0008810C0008C4
:10010000850C0008890C00088D0C0008910C000873
:10011000950C0008990C00089D0C0008A10C000823
:10012000A50C0008A90C0008AD0C0008B10C0008D3
:10013000B50C0008B90C0008BD0C0008C10C000883
:10014000C50C0008C90C0008CD0C0008D10C000833
:10015000D50C0008D90C0008DD0C0008E10C0008E3
:10016000E50C0008E90C0008ED0C0008F10C000893
:10017000F50C0008F90C0008FD0C0008010D000842
:10018000050D0008090D000810B4002204883E4B3C
:1001900098420ED0424A90420BD0B0F1804F08D026
:1001A0003A4A904205D03A4A904202D0394A9042A7
:1001B00004D14FF68F7214404A881443364A904255
:1001C00007D0364A904204D04FF6FF4214400A89C5
:1001D000144304804A68C2620A880285984202D0A9
:1001E0002F4A904201D1897A01860121818210BC77
:1001F0007047C9B2002904D0018851F00101018083
:1002000004E002884FF6FE710A400280704730B465
:10021000002200220022038C4FF6FE72134003845A
:10022000058C8388048B4FF68F7214404FF6FC7256
:1002300014400A8814434FF6FD7215408A8915430D
:100240004A881543104A904202D0154A904213D171
:100250004FF6F7721540CA8915434FF6FB721540E9
:100260008A8815434FF6FF6213404FF6FF52134042
:100270000A8A13434A8A134383800483896841634B
:10028000058430BC704700000000014000040040BD
:1002900000080040000C0040001000400014004026
:1002A0000004014038B504000D00288800280AD158
:1002B0002B89AA886988200000F076F8E988200058
:1002C00000F02AF825E0288804280AD12B89AA887A
:1002D0006988200000F082F8E988200000F025F805
:1002E00017E0288808280AD12B89AA886988200065
:1002F00000F091F8E988200000F021F809E02B894E
:10030000AA886988200000F0A2F8E988200000F09F
:100310001FF831BD406B7047038B4FF6F3721340EB
:100320000383028B114301837047038B4FF2FF322B
:1003300013400383028B52EA012202837047838BAE
:100340004FF6F37213408383828B1143818370478E
:10035000838B4FF2FF3213408383828B52EA012258
:1003600082837047D2B2002A03D0828911438181EF
:1003700003E0828932EA0101818170470022002274
:100380000022028A0A408089014092B2002A04D0E9
:1003900089B2002901D0012000E00020C0B27047DE
:1003A00089B2C9430182704770B400240024058CCF
:1003B0004FF6FE7425400584058B068C4FF60C74B1
:1003C00025402A4352EA03124FF6F5731E4031438B
:1003D00051F001010283018470BC704770B40024A5
:1003E00000240024058C4FF6EF7425400584058B0E
:1003F000068C090140F6FF44254055EA033555EACD
:1004000002254FF65F721640314351F0100105830B
:10041000018470BC704770B4002400240024058C53
:100420004FF6FF6425400584858B068C09024FF644
:100430000C7425402A4352EA03124FF2FF531E4028
:10044000314351F480718283018470BC704770B471
:10045000002400240024058C4EF6FF7425400584FA
:10046000858B068C090340F6FF44254055EA02259A
:1004700055EA033545F6FF721640314351F4805179
:100480008583018470BC704781B00021009144F2E3
:10049000A0114843009002E00098401E0090009890
:1004A0000028F9D101B070472DE9F04705004FF45D
:1004B0007A7095FBF0F44FF47A7095FBF0F100FB45
:1004C0001155642095FBF0F6642095FBF0F100FBDC
:1004D00011550A2095FBF0F70A2095FBF0F100FB7F
:1004E00011555FF0000839E0DFF81092DFF810A234
:1004F0002000C0B21AF8001051F4606189B2484679
:1005000000F058F90120FFF7BFFF3000C0B21AF821
:10051000001051F4506189B2484600F04BF90120B7
:10052000FFF7B2FF3800C0B21AF8001051F4306182
:1005300089B2484600F03EF90120FFF7A5FF2800E8
:10054000C0B21AF8001051F4E06189B2484600F0D8
:1005500031F90120FFF798FF18F10108B8F11E0FDB
:10056000C2DBBDE8F08770B5664D02212800FFF7B9
:1005700005FF01282DD102212800FFF711FF624C51
:100580002088002807D12800FFF7C4FE5F490880B3
:10059000012020801DE0208801281AD15C4E28000F
:1005A000FFF7B8FE3080594801883288914205D261
:1005B00031880088091A5748016008E04FF6FF713A
:1005C0000088091A308811FA80F05249086000202A
:1005D000208070BD38B58EB00121072000F032F9BF
:1005E0000121062000F03CF901208DF808000020D0
:1005F0008DF80A0003208DF8090000208DF80B000B
:1006000040F6FF70019001A93C4800F08BF84020B3
:10061000019002208DF808003F4C01A9200000F055
:1006200081F8402001903D4D01A9280000F07AF8A2
:1006300002220621200000F0C0F802220621280034
:1006400000F0BBF80020ADF8180040F2E73007904A
:100650000020ADF820000020ADF81A00304C06A9AB
:100660002000FFF791FD6020ADF824000120ADF8D7
:1006700026004FF4FA700B9009A92000FFF7C7FD80
:100680004FF4A06000F0FEF81E208DF8000001205D
:100690008DF8010001208DF8020001208DF8030083
:1006A000684600F0F4F80020ADF80C000020ADF82A
:1006B0000E000120ADF810000020ADF8120000205F
:1006C000ADF814000F4D03A92800FFF7EBFD022140
:1006D0002800FFF765FE012202212800FFF742FEF5
:1006E00001212800FFF785FD01212000FFF781FD92
:1006F00008480068FFF7D8FEFAE70000000802404B
:10070000000000200008004054000020500000209D
:1007100052000020140000200000024000040240AB
:1007200000040040F0B400220022002200233DE03B
:10073000012414FA03F20D681540954235D10325C2
:1007400002685E0015FA06F6B243026006680F7989
:100750005A0097403E4306600A79012A02D00A797E
:10076000022A16D182685E0015FA06F6B24382604C
:1007700086684F795A0097403E43866042689C40A5
:1007800032EA0404446042688C799C40A4B222435B
:100790004260C4685A00954034EA0505C560C468E3
:1007A000CD795A0095402C43C4605B1C102BBFD3FD
:1007B000F0BC704789B24161704770B400230023D8
:1007C000D2B28B0013F01C039A400B009BB2DB10DB
:1007D00000EB83030C00A4B2E41000EB8404246A51
:1007E0000F258E0016F01C06B540AC431C620B00B2
:1007F0009BB2DB1000EB83031B6A1A4389B2C9105A
:1008000000EB8100026270BC704730B501688468FB
:100810004218416802EB5103C90703D54C4401E07B
:10082000491C08D19A4218BF12F9011B01D10C30A2
:1008300030BD12F8015B002904F8015BF0D4491EB9
:10084000F7D5EFE7C9B2002904D00C490A68104374
:10085000086004E009490A6832EA0000086070474D
:10086000C9B2002904D006490A681043086004E0B0
:1008700003490A6832EA00000860704730380240D5
:10088000403802401A4908431A490860704700215D
:1008900000210F23C17800291FD01649096811F4DF
:1008A000E061D1F5E061090AD1F10402DBB20B414C
:1008B000417811FA02F281780B401A4312010E4975
:1008C0000378CA540121027812F01F0291400B4AAA
:1008D0000078401142F8201009E00121027812F05E
:1008E0001F029140064A0078401142F820107047DC
:1008F0000000FA050CED00E000E400E000E100E09B
:1009000080E100E080B53C48016851F4700101606D
:100910003A49086850F0010008600020384A106029
:100920000A68384802400A603748384A1060086848
:1009300030F48020086000203549086000F005F898
:100940005FF000603349086001BD82B00020019073
:10095000002000902949086850F480300860086839
:1009600010F4003000900198401C0190009800287D
:1009700003D10198B0F5A04FF1D10868800302D5EA
:100980000120009001E000200090009801282FD164
:100990002148026852F0805202602048026852F4F6
:1009A00040420260164802680260026852F4004247
:1009B0000260026852F4A0520260194A134B1A6096
:1009C0000A6852F080720A600A689201FCD540F20F
:1009D0000571144A11600168890889000160016885
:1009E00051F002010160016811F00C010829FAD1EF
:1009F00002B070470000000088ED00E000380240BF
:100A000008380240FFFFF6FE103000240438024090
:100A10000C38024008ED00E0403802400070004011
:100A200008544007003C02408088C005C00D704754
:100A300010B400220022002200220A0040F66A13AD
:100A400092B29A420B00DBB25B09DBB20A0092B2AF
:100A500012F01F02012414FA02F2012B02D1838941
:100A60001A4006E0022B02D1038A1A4001E0838A71
:100A70001A4089B2090A89B214FA01F100880140CA
:100A8000002A03D0002901D0012000E00020C0B2DC
:100A900010BC704710B5104C40F225512000FFF7F4
:100AA000C7FF002816D02000FFF7BEFF0B490C4AF5
:100AB0000B68D0540868105C0D2808D100200B6822
:100AC000D0540120074A10700020086002E0086836
:100AD000401C086010BD0000004400404C00002095
:100AE000180000205600002010B50749794418313D
:100AF000064C7C44163404E00A68081D11448847FB
:100B00000146A142F8D110BD2C00000038000000C1
:100B10004EF68851CEF20001086840F4700008607B
:100B2000BFF34F8FBFF36F8F4FF00170E1EE100AEC
:100B300070470000D7FCFFFFD40100002A0000002E
:100B4000000000207047FEE7FEE7FEE7FEE7704783
:100B5000704770477047000000F00DF8002801D082
:100B6000FFF7C2FFAFF300800020AFF30080FFF774
:100B700031FD00F002F80120704700F001B80000DC
:100B80000746384600F002F8FBE7000080B5AFF3F7
:100B90000080024A11001820ABBEFBE726000200CD
:100BA0000548014603B4684680F30988AFF3008026
:100BB000FFF7AEFFFFF7D0FFA5EDF5FE0148804738
:100BC0000148004705090008A10B0008FFF7FEBF18
:100BD000FFF7FEBFFFF7FEBFFFF7FEBFFFF7FEBF49
:100BE000FFF7FEBFFFF7FEBFFFF7FEBFFFF7FEBF39
:100BF000FFF7FEBFFFF7FEBFFFF7FEBFFFF7FEBF29
:100C0000FFF7FEBFFFF7FEBFFFF7FEBFFFF7FEBF18
:100C1000FFF7FEBFFFF7FEBFFFF7FEBFFFF7FEBF08
:100C2000FFF7FEBFFFF7FEBFFFF7FEBFFFF7FEBFF8
:100C3000FFF7FEBFFFF7FEBFFFF7FEBFFFF7FEBFE8
:100C4000FFF7FEBFFFF7FEBFFFF7FEBFFFF7FEBFD8
:100C5000FFF7FEBFFFF7FEBFFFF7FEBFFFF7FEBFC8
:100C6000FFF7FEBFFFF7FEBFFFF7FEBFFFF7FEBFB8
:100C7000FFF7FEBFFFF7FEBFFFF7FEBFFFF7FEBFA8
:100C8000FFF7FEBFFFF7FEBFFFF7FEBFFFF7FEBF98
:100C9000FFF7FEBFFFF7FEBFFFF7FEBFFFF7FEBF88
:100CA000FFF7FEBFFFF7FEBFFFF7FEBFFFF7FEBF78
:100CB000FFF7FEBFFFF7FEBFFFF7FEBFFFF7FEBF68
:100CC000FFF7FEBFFFF7FEBFFFF7FEBFFFF7FEBF58
:100CD000FFF7FEBFFFF7FEBFFFF7FEBFFFF7FEBF48
:100CE000FFF7FEBFFFF7FEBFFFF7FEBFFFF7FEBF38
:100CF000FFF7FEBFFFF7FEBFFFF7FEBFFFF7FEBF28
:100D0000FFF7FEBFFFF7FEBFFFF7FEBF113F065B19
:100D10004F666D7C077F67777C395E79710880BB91
:010D200000D2
:0400000508000BA143
:00000001FF
