:020000040800F2
:1000000098200020E5120008511200085312000841
:10001000551200085712000859120008000000008D
:100020000000000000000000000000005B1200085B
:100030005D120008000000005F1200086112000855
:10004000F5120008F9120008FD120008011300085B
:1000500005130008091300080D1300080902000821
:10006000330200085D02000887020008111300082F
:1000700015130008191300081D13000821130008A8
:100080002513000829130008930B00082D130008FE
:10009000311300083513000839130008A9020008BD
:1000A0003D130008890100084113000845130008AA
:1000B000491300084D130008511300085513000898
:1000C000591300085D130008611300086513000848
:1000D000691300086D13000855110008711300081A
:1000E00075130008791300087D13000881130008B8
:1000F00085130008891300088D1300089113000868
:1001000095130008991300089D130008A113000817
:10011000A5130008A9130008AD130008490E000834
:10012000B1130008B5130008B9130008BD13000887
:10013000C1130008C5130008C9130008CD13000837
:10014000D1130008D5130008D9130008DD130008E7
:10015000E1130008E5130008E9130008ED13000897
:10016000F1130008F5130008F9130008FD13000847
:100170000114000805140008091400080D140008F3
:10018000111400081514000810B5DFF8EC43022123
:10019000200000F0CDFA002817D00221200000F046
:1001A000D9FADFF8D8030168491C016001681C29ED
:1001B0000BDB00210160DFF8C8030168491C016006
:1001C0000168642901DB002101600121200000F0A9
:1001D000AFFA002817D00121200000F0BBFADFF8A9
:1001E000A4030168491C0160016838290BDB002168
:1001F0000160DFF894030168491C0160016864290B
:1002000001DB0021016010BD10B5022000F040FBB1
:1002100000280DD0DD4C4FF40071200000F09DFB54
:100220004FF48061200000F096FB022000F03AFBC2
:1002300010BD10B5042000F02BFB00280DD0D34CCE
:100240004FF48061200000F088FB4FF40071200023
:1002500000F081FB042000F025FB10BD10B5082044
:1002600000F016FB00280DD0C84C4FF48061200030
:1002700000F073FB4FF40071200000F06EFB0820CB
:1002800000F010FB10BD80B5102000F001FB00282D
:1002900009D0BF4801680A2902DB01680A390160F8
:1002A000102000F0FFFA01BD80B5202000F0F0FA28
:1002B00000280AD0B64801685B2902DA01680A31D1
:1002C0000160202000F0EEFA10E0402000F0E0FA9B
:1002D000002803D0402000F0E5FA07E0802000F07D
:1002E000D7FA002802D0802000F0DCFA01BD2DE909
:1002F000F0418EB032260121032000F077FB01216E
:100300005FF4003000F08EFB0121012000F08AFB39
:1003100000208DF80C0000208DF80E0003208DF8D1
:100320000D0000208DF80F00FE200290994C02A9CC
:10033000200000F0C5FA02208DF80C004FF4807503
:10034000029502A9200000F0BBFA0122082120003A
:1003500000F00FFB904C032300225021200000F0FE
:10036000FDF90121200000F076F9029502208DF8B8
:100370000C0003208DF80D0000208DF80E000120E8
:100380008DF80F00814F02A9380000F099FA4FF460
:10039000C060029001208DF80C0002A9380000F026
:1003A0008FFA03220821380000F0E3FAFE200490BF
:1003B00000208DF8140008208DF8150001208DF81C
:1003C000160004A800F028FA4FF4A06000F03EFBED
:1003D00007208DF8040001208DF8050001208DF81C
:1003E000060001208DF8070001A800F034FB08206A
:1003F0008DF8040000208DF8060001A800F02BFB0A
:1004000009208DF8040000208DF8060001A800F0F6
:1004100022FB0A208DF8040000208DF8060001A8B8
:1004200000F019FB17208DF8040000208DF806005D
:1004300001A800F010FB4FF4A06000F007FB1920AA
:100440008DF8040001208DF8050001208DF80600CC
:1004500001208DF8070001A800F0FDFAA720ADF8F3
:10046000180044F2235507950020ADF82000002025
:10047000ADF81A00DFF8008106A9404600F0A6F8A2
:100480006020ADF824000120ADF8260042F2912052
:100490000B900020ADF8300009A9404600F0E9F8C3
:1004A0000321404600F056F901220321404600F0A6
:1004B00033F90821404600F027F90121404600F0B9
:1004C000BCF80121404600F0C6F800224FF400714C
:1004D000380000F044FA00224FF48061380000F048
:1004E0003EFA00F0F3FA2D4800F01DFC00F05CFC31
:1004F000002026E01168B120414303E01068642821
:10050000F8D129002648016016681768642047431F
:10051000DFF89080200000F08EF8C8F80000D8F8CE
:100520000000642808DBD8F80000642190FBF1F299
:1005300001FB1200C8F80000D8F80000C7191A48DB
:1005400007601A4F386800280DD0642000900023FF
:1005500040F6FF7200211648008800F02BF80C4985
:100560000860002038600A4A1068B042CDD0106898
:100570000028C3D10121C5E7004401405C000020F0
:1005800060000020540000205800002000040240B9
:100590000000002000000240000001400020014057
:1005A000344401406400002074000020500000200A
:1005B0009000002010B4019C401AE41A6043511AC4
:1005C00090FBF1F01B18180010BC704710B400220B
:1005D0000488464B98420ED04A4A90420BD0B0F164
:1005E000804F08D0424A904205D0424A904202D001
:1005F000414A904204D14FF68F7214404A88144306
:100600003E4A904207D03E4A904204D04FF6FF4205
:1006100014400A89144304804A68C2620A88028529
:10062000984202D0374A904201D1897A018601214D
:10063000818210BC7047406A7047C9B2002904D05B
:10064000018851F08001018004E002884FF67F713B
:100650000A4002807047C9B2002904D0018851F0D5
:100660000101018004E002884FF6FE710A40028019
:10067000704730B4002200220022038C4FF6FE7235
:1006800013400384058C8388048B4FF68F721440CB
:100690004FF6FC7214400A8814434FF6FD72154061
:1006A0008A8915434A881543104A904202D0154A58
:1006B000904213D14FF6F7721540CA8915434FF691
:1006C000FB7215408A8815434FF6FF6213404FF6C0
:1006D000FF5213400A8A13434A8A134383800483D8
:1006E00089684163058430BC704700000000014008
:1006F0000004004000080040000C004000100040D2
:1007000000140040000401400022038B4FF6F772F2
:100710001340194301837047D2B2002A03D0828963
:100720001143818103E0828932EA010181817047AE
:10073000002200220022028A0A408089014092B2EF
:10074000002A04D089B2002901D0012000E0002055
:10075000C0B2704789B2C9430182704738B50400FE
:100760000D001100280080B2602806D19BB2012242
:1007700089B2200000F033F805E09BB2012289B273
:10078000200000F012F8290089B2200000F005F8DE
:10079000208950F00700208131BD002203894FF6E7
:1007A0008F72134019430181704770B400240024F4
:1007B000058C4FF6FE7425400584058B068C4FF69C
:1007C0000C7425402A4352EA03124FF6F5731E407B
:1007D000314351F001010283018470BC704770B451
:1007E000002400240024058C4FF6EF742540058476
:1007F000058B068C090140F6FF44254055EA033578
:1008000055EA02254FF65F721640314351F0100150
:100810000583018470BC704730B40021234A130063
:10082000817900292CD0214C256801688D432560F1
:100830001F4C256801688D43256001795B181C6891
:1008400001680C431C601B4B1C6801688C431C60D6
:10085000194C256801688D4325604179102908D11C
:100860001A6801680A431A60216800680143216020
:100870000CE0417951180A68006802430A6005E0FB
:10088000017959180A68006882430A6030BC7047D1
:1008900000210A490968014201D0012000E000203E
:1008A000C0B270470549086070470000003C014035
:1008B000043C0140083C01400C3C0140143C014018
:1008C000F0B400220022002200233DE0012414FAAB
:1008D00003F20D681540954235D1032502685E008C
:1008E00015FA06F6B243026006680F795A0097407F
:1008F0003E4306600A79012A02D00A79022A16D1FB
:1009000082685E0015FA06F6B243826086684F7907
:100910005A0097403E43866042689C4032EA040495
:10092000446042688C799C40A4B222434260C4680F
:100930005A00954034EA0505C560C468CD795A006F
:1009400095402C43C4605B1C102BBFD3F0BC704798
:10095000006980B270470183704741837047D2B20B
:10096000002A01D0018300E04183704789B24161D0
:10097000704770B400230023D2B28B0013F01C0325
:100980009A400B009BB2DB1000EB83030C00A4B277
:10099000E41000EB8404246A0F258E0016F01C0678
:1009A000B540AC431C620B009BB2DB1000EB830331
:1009B0001B6A1A4389B2C91000EB8100026270BC45
:1009C00070470EE002684368024408305FEAC37C67
:1009D00044BF4B445B1E52F804CB43F804CB091FC1
:1009E000F9D150F8041B0029ECD17047C9B2002995
:1009F00004D013490A681043086004E010490A68EB
:100A000032EA000008607047C9B2002904D00D49DD
:100A10000A681043086004E00A490A6832EA0000E4
:100A200008607047C9B2002904D007490A6810431A
:100A3000086004E004490A6832EA00000860704770
:100A40003038024040380240443802401A490843D6
:100A50001A4908607047002100210F23C17800293E
:100A60001FD01649096811F4E061D1F5E061090A67
:100A7000D1F10402DBB20B41417811FA02F2817824
:100A80000B401A4312010E490378CA54012102781F
:100A900012F01F0291400B4A0078401142F82010DA
:100AA00009E00121027812F01F029140064A007805
:100AB000401142F8201070470000FA050CED00E0EC
:100AC00000E400E000E100E080E100E018B58DB056
:100AD00001210120FFF78AFF01214FF48070FFF709
:100AE000A1FF03208DF8080000208DF80A000320E4
:100AF0008DF8090000208DF80B000120019001A95C
:100B00002F48FFF7DDFE4FF4A060FFF79FFF122094
:100B10008DF8000001208DF8010001208DF8020001
:100B200001208DF803006846FFF795FF0020039031
:100B300000200490002005900020069003A800F0FB
:100B40006CF80020079000208DF8200001208DF81F
:100B500021000020099000200A9000200B90012025
:100B60008DF83000174C07A9200000F031F8002361
:100B700001220021200000F06CF8012240F2052142
:100B8000200000F0E1F80121200000F055F80EB03F
:100B900010BD38B50B4C40F205252900200000F0AF
:100BA000E4F800280BD02900200000F0F6F820001F
:100BB00000F0BEF80449088001200449086031BDF6
:100BC0000000024000200140900000205000002062
:100BD00010B4002200234468574A14400A7954EAAA
:100BE00002240A68144344608468544A14400A6921
:100BF0001443CA6814438A6814434A7954EA420485
:100C00008460C26A32F47002097D491E0B43DBB274
:100C100052EA0352C26210BC70470021484B1A6866
:100C200048490A4001680A4341680A4381680A4307
:100C3000C06802431A607047C9B2002904D08168B5
:100C400051F00101816003E0816849084900816039
:100C50007047F0B4002400240C00E4B20A2C13DB2B
:100C6000C5680726B1F10A04032714FB07F416FA36
:100C700004F4A543DBB2B1F10A04032614FB06F425
:100C8000A3402B43C3600EE005690726032411FB34
:100C900004F416FA04F4A543DBB2032411FB04F4B4
:100CA000A3402B4303611300DBB2072B11DA436B24
:100CB0001F25541E052614FB06F415FA04F4A3435D
:100CC000C9B2521E052412FB04F29140194341633C
:100CD00027E01300DBB20D2B11DA036B1F25D41FA5
:100CE000052614FB06F415FA04F4A343C9B2D21F77
:100CF000052412FB04F291401943016311E0C36A19
:100D00001F25B2F10D04052614FB06F415FA04F4B0
:100D1000A343C9B20D3A052412FB04F291401943D2
:100D2000C162F0BC7047816851F0804181607047BA
:100D3000C06C80B270470000FFFEFFFCFDF7FFC0F3
:100D400004230140E030FCFF0023C9B2012313FA61
:100D500001F1D2B2002A03D042681143416003E09E
:100D6000426832EA01014160704710B4002200225B
:100D700000220A0092B2120A92B24368012414FAC5
:100D800001F119400068104203D0002901D0012070
:100D900000E00020C0B210BC7047002289B2090AEE
:100DA000C9B2C9430160704710B586B00121042063
:100DB000FFF71CFE01212020FFF726FE01208DF801
:100DC000080000208DF80A0003208DF8090000209B
:100DD0008DF80B0040F6FF70019001A96C48FFF7F9
:100DE0006FFD4FF4A060FFF731FE37208DF8000053
:100DF00001208DF8010001208DF8020001208DF8FE
:100E000003006846FFF727FE5320ADF80C0040F6BC
:100E10009F7004900020ADF814000020ADF80E0083
:100E20005C4C03A92000FFF7D1FB01212000FFF754
:100E300091FC012201212000FFF76EFC012120001E
:100E4000FFF709FC06B010BD38B5524C0121200057
:100E5000FFF76EFC002823D001212000FFF77AFC69
:100E60004D4C2068401C20604C480168491C0160C2
:100E70004B4D4C480168286800F013F82868042896
:100E800002D10120286002E02868401C2860206808
:100E9000FA2805DB0020206043480168491C0160F6
:100EA00031BD10B5012812D14FF47A7091FBF0F2E8
:100EB00000FB12103D4A10603D484FF47A7291FBDE
:100EC000F2F101600168012000F036F833E00228F9
:100ED00013D1384935480268642392FBF3F20A6063
:100EE00064220368046894FBF2F402FB143202608B
:100EF0000968022000F020F81DE003280BD12E48DD
:100F00002A4909680A2291FBF2F101600168032075
:100F100000F012F80FE004280DD10A21274A2348D7
:100F20000368006890FBF1F001FB1031116011685B
:100F3000042000F001F810BD70B506000D00144C3F
:100F40002000FFF705FD50F47060010089B2200019
:100F5000FFF70CFD2000FFF7FBFC4FF48072711EC1
:100F60008A4052F0FF029043010089B22000FFF74F
:100F7000FDFC2000FFF7ECFC10F470601049495DA7
:100F80000843010089B22000FFF7F0FC70BD0000AB
:100F90000008024000140040680000206C0000209F
:100FA000180000207400002070000020880000203D
:100FB000780000207C0000208000002084000020B9
:100FC0000400002080B53C48016851F470010160C4
:100FD0003A49086850F0010008600020384A106063
:100FE0000A68384802400A603748384A1060086882
:100FF00030F48020086000203549086000F005F8D2
:101000005FF000603349086001BD82B000200190AC
:10101000002000902949086850F480300860086872
:1010200010F4003000900198401C019000980028B6
:1010300003D10198B0F5A04FF1D10868800302D523
:101040000120009001E000200090009801282FD19D
:101050002148026852F0805202602048026852F42F
:1010600040420260164802680260026852F4004280
:101070000260026852F4A0520260194A134B1A60CF
:101080000A6852F080720A600A689201FCD540F248
:101090000571144A116001688908890001600168BE
:1010A00051F002010160016811F00C010829FAD128
:1010B00002B070470000000088ED00E000380240F8
:1010C00008380240FFFFF6FE1030002404380240CA
:1010D0000C38024008ED00E040380240007000404B
:1010E00008544007003C02408088C005C00D70478E
:1010F00010B400220022002200220A0040F66A13E7
:1011000092B29A420B00DBB25B09DBB20A0092B2E8
:1011100012F01F02012414FA02F2012B02D183897A
:101120001A4006E0022B02D1038A1A4001E0838AAA
:101130001A4089B2090A89B214FA01F10088014003
:10114000002A03D0002901D0012000E00020C0B215
:1011500010BC704710B5104C40F225512000FFF72D
:10116000C7FF002816D02000FFF7BEFF0B490C4A2E
:101170000B68D0540868105C0D2808D100200B685B
:10118000D0540120074A10700020086002E008686F
:10119000401C086010BD0000004400408C0000208E
:1011A0001C0000209200002030B4002512E050F80E
:1011B000042BD30744BF4A44521E091F042942F896
:1011C000045BFAD213468C0744BF15809B1CC907E9
:1011D00048BF1D7050F8041B0029E8D130BC70478F
:1011E00010B5074979441831064C7C44163404E0A4
:1011F0000A68081D114488470146A142F8D110BD74
:101200002C0000004C0000004EF68851CEF2000188
:10121000086840F470000860BFF34F8FBFF36F8F12
:101220004FF00170E1EE100A704700007DFFFFFFF4
:10123000780000001C0000200000000087F7FFFF7E
:101240001C000000840000000000002000000000DE
:101250007047FEE7FEE7FEE7FEE77047704770471E
:101260007047000000F00DF8002801D0FFF7B8FF2C
:10127000AFF300800020AFF30080FFF738F800F0F4
:1012800002F80120704700F001B800000746384618
:1012900000F002F8FBE7000080B5AFF30080024ADF
:1012A00011001820ABBEFBE72600020005480146EE
:1012B00003B4684680F30988AFF30080FFF7A4FF0A
:1012C000FFF7D0FFA5EDF5FE320000003F065B4FB3
:1012D000666D7C077F67777C395E797108800000D6
:1012E000010000000148804701480047C50F000881
:1012F000AD120008FFF7FEBFFFF7FEBFFFF7FEBF0E
:10130000FFF7FEBFFFF7FEBFFFF7FEBFFFF7FEBF11
:10131000FFF7FEBFFFF7FEBFFFF7FEBFFFF7FEBF01
:10132000FFF7FEBFFFF7FEBFFFF7FEBFFFF7FEBFF1
:10133000FFF7FEBFFFF7FEBFFFF7FEBFFFF7FEBFE1
:10134000FFF7FEBFFFF7FEBFFFF7FEBFFFF7FEBFD1
:10135000FFF7FEBFFFF7FEBFFFF7FEBFFFF7FEBFC1
:10136000FFF7FEBFFFF7FEBFFFF7FEBFFFF7FEBFB1
:10137000FFF7FEBFFFF7FEBFFFF7FEBFFFF7FEBFA1
:10138000FFF7FEBFFFF7FEBFFFF7FEBFFFF7FEBF91
:10139000FFF7FEBFFFF7FEBFFFF7FEBFFFF7FEBF81
:1013A000FFF7FEBFFFF7FEBFFFF7FEBFFFF7FEBF71
:1013B000FFF7FEBFFFF7FEBFFFF7FEBFFFF7FEBF61
:1013C000FFF7FEBFFFF7FEBFFFF7FEBFFFF7FEBF51
:1013D000FFF7FEBFFFF7FEBFFFF7FEBFFFF7FEBF41
:1013E000FFF7FEBFFFF7FEBFFFF7FEBFFFF7FEBF31
:1013F000FFF7FEBFFFF7FEBFFFF7FEBFFFF7FEBF21
:10140000FFF7FEBFFFF7FEBFFFF7FEBFFFF7FEBF10
:08141000FFF7FEBFFFF7FEBF6E
:04000005080012AD30
:00000001FF
