:020000040800F2
:10000000682000204D0D00084F0C0008510C00081E
:10001000530C0008550C0008570C000800000000A5
:10002000000000000000000000000000590C000863
:100030005B0C0008000000005D0C00085F0C00086D
:100040005D0D0008610D0008650D0008690D0008D0
:100050006D0D0008710D0008E10200080B03000897
:10006000350300085F03000873030008750D0008DE
:10007000790D00087D0D0008810D0008850D000830
:10008000890D00088D0D0008910D0008950D0008E0
:10009000990D00089D0D0008A10D000895030008AA
:1000A000A50D000869020008A90D0008AD0D0008A3
:1000B000B10D0008B50D0008B90D0008BD0D000810
:1000C000C10D0008C50D0008C90D0008CD0D0008C0
:1000D000D10D0008D50D0008990B0008D90D0008B6
:1000E000DD0D0008E10D0008E50D0008E90D000830
:1000F000ED0D0008F10D0008F50D0008F90D0008E0
:10010000FD0D0008010E0008050E0008090E00088C
:100110000D0E0008110E0008150E0008190E00083B
:100120001D0E0008210E0008250E0008290E0008EB
:100130002D0E0008310E0008350E0008390E00089B
:100140003D0E0008410E0008450E0008490E00084B
:100150004D0E0008510E0008550E0008590E0008FB
:100160005D0E0008610E0008650E0008690E0008AB
:100170006D0E0008710E0008750E0008790E00085B
:100180007D0E0008810E000881B00021009144F22C
:10019000A0114843009002E00098401E0090009893
:1001A0000028F9D101B070472DE9F04104000A2080
:1001B00094FBF0F50A2094FBF0F100FB11440026BB
:1001C0001EE0DFF82874DFF828842800C0B218F891
:1001D000001051F4306189B2380000F070FA01204B
:1001E000FFF7D2FF2000C0B218F8001051F4E06110
:1001F00089B2380000F063FA0120FFF7C5FF761CD2
:10020000052EDEDBBDE8F0812DE9F04104000A2077
:1002100094FBF0F50A2094FBF0F100FB114400265A
:100220001EE0DFF8C873DFF8C8832800C0B218F8F2
:10023000001051F4606189B2380000F040FA0120EA
:10024000FFF7A2FF2000C0B218F8001051F450616F
:1002500089B2380000F033FA0120FFF795FF761CD1
:10026000052EDEDBBDE8F08110B5DFF88843022102
:10027000200000F0FFFA002815D00221200000F035
:100280000BFBDD480168491C016001681C290ADB81
:1002900000210160D9480168491C01600168642996
:1002A00001DB002101600121200000F0E3FA0028B9
:1002B00015D00121200000F0EFFAD1480168491C57
:1002C0000160016838290ADB00210160CD4801681E
:1002D000491C01600168642901DB0021016010BD37
:1002E00010B5012000F018FB00280DD0C64C4FF4CB
:1002F0000071200000F0DAF94FF48061200000F076
:10030000D3F9012000F012FB10BD10B5022000F05F
:1003100003FB00280DD0BC4C4FF48061200000F09E
:10032000C5F94FF40071200000F0BEF9022000F082
:10033000FDFA10BD10B5042000F0EEFA00280DD033
:10034000B14C4FF48061200000F0B0F94FF400711F
:10035000200000F0ABF9042000F0E8FA10BD80B5F1
:10036000082000F0D9FA002802D0082000F0DEFAB8
:1003700001BD80B5102000F0CFFA002809D0A348B5
:1003800001680A2902DB01680A390160102000F0C7
:10039000CDFA01BD80B5202000F0BEFA00280AD0B9
:1003A0009A4801685B2902DA01680A31016020205D
:1003B00000F0BCFA10E0402000F0AEFA002803D0B4
:1003C000402000F0B3FA07E0802000F0A5FA0028F2
:1003D00002D0802000F0AAFA01BDF0B58DB0322520
:1003E0000121072000F0B0FA01215FF4003000F095
:1003F000B9FA00208DF8080000208DF80A000320CB
:100400008DF8090000208DF80B00FF24019401A94C
:100410007F4800F001F901208DF8080040F6FF70D8
:10042000019001A9714800F0F7F84FF48070019035
:1004300002208DF8080003208DF8090000208DF8B7
:100440000A0001208DF80B006F4E01A9300000F06A
:10045000E3F84FF4C060019001208DF8080001A975
:10046000300000F0D9F803220821300000F02AF90A
:10047000039400208DF8100008208DF81100012051
:100480008DF8120003A800F00BFA4FF4A06000F002
:100490007BFA06208DF8000001208DF80100012074
:1004A0008DF8020001208DF80300684600F071FA13
:1004B00007208DF8000000208DF80200684600F04B
:1004C00068FA08208DF8000000208DF802006846C8
:1004D00000F05FFA09208DF8000000208DF802007E
:1004E000684600F056FA0A208DF8000000208DF8CA
:1004F0000200684600F04DFA17208DF80000002039
:100500008DF80200684600F044FA4FF4A06000F055
:100510003BFA19208DF8000001208DF80100012020
:100520008DF8020001208DF80300684600F031FAD2
:10053000A720ADF8140044F2235406940020ADF82F
:100540001C000020ADF816002A4F05A9380000F065
:10055000E1F86020ADF820000120ADF8220042F261
:1005600091200A900020ADF82C0008A9380000F076
:1005700022F90321380000F08FF90122032138000D
:1005800000F06CF90821380000F060F90121380012
:1005900000F0F5F80121380000F0FFF800224FF4D8
:1005A0000071300000F084F800224FF480613000C8
:1005B00000F07EF811E01168B120414303E01068BB
:1005C0006428F8D121001348016015681068FFF70E
:1005D0001BFE0C480068FFF7E7FD0C4A1068A842B4
:1005E000F4D010680028EAD10121ECE700080240AD
:1005F000000000200044014054000020580000206A
:100600004C00002050000020000402401400002094
:100610000000024034440140F0B4002200220022D5
:1006200000233DE0012414FA03F20D6815409542C1
:1006300035D1032502685E0015FA06F6B243026062
:1006400006680F795A0097403E4306600A79012AEE
:1006500002D00A79022A16D182685E0015FA06F6DF
:10066000B243826086684F795A0097403E43866065
:1006700042689C4032EA0404446042688C799C40A1
:10068000A4B222434260C4685A00954034EA05058A
:10069000C560C468CD795A0095402C43C4605B1C8A
:1006A000102BBFD3F0BC7047018370474183704764
:1006B000D2B2002A01D0018300E04183704789B2A1
:1006C0004161704770B400230023D2B28B0013F055
:1006D0001C039A400B009BB2DB1000EB83030C0061
:1006E000A4B2E41000EB8404246A0F258E0016F0F7
:1006F0001C06B540AC431C620B009BB2DB1000EB48
:1007000083031B6A1A4389B2C91000EB810002629D
:1007100070BC704710B400220488454B98420ED03C
:10072000494A90420BD0B0F1804F08D0414A9042E4
:1007300005D0414A904202D0404A904204D14FF63F
:100740008F7214404A8814433D4A904207D03D4A74
:10075000904204D04FF6FF4214400A8914430480AB
:100760004A68C2620A880285984202D0364A90429C
:1007700001D1897A01860121818210BC7047C9B2FA
:10078000002904D0018851F08001018004E0028832
:100790004FF67F710A4002807047C9B2002904D029
:1007A000018851F00101018004E002884FF6FE71DA
:1007B0000A400280704730B4002200220022038CDD
:1007C0004FF6FE7213400384058C8388048B4FF62A
:1007D0008F7214404FF6FC7214400A8814434FF68F
:1007E000FD7215408A8915434A881543104A904284
:1007F00002D0154A904213D14FF6F7721540CA89BC
:1008000015434FF6FB7215408A8815434FF6FF6279
:1008100013404FF6FF5213400A8A13434A8A134388
:100820008380048389684163058430BC704700007D
:10083000000001400004004000080040000C00409F
:100840000010004000140040000401400022038B0F
:100850004FF6F7721340194301837047D2B2002A52
:1008600003D082891143818103E0828932EA010148
:1008700081817047002200220022028A0A4080897A
:10088000014092B2002A04D089B2002901D001208F
:1008900000E00020C0B2704789B2C94301827047AE
:1008A00030B40021234A1300817900292CD0214C37
:1008B000256801688D4325601F4C256801688D43BC
:1008C000256001795B181C6801680C431C601B4B98
:1008D0001C6801688C431C60194C256801688D43B5
:1008E00025604179102908D11A6801680A431A6005
:1008F00021680068014321600CE0417951180A68C1
:10090000006802430A6005E0017959180A68006826
:1009100082430A6030BC704700210A4909680142DD
:1009200001D0012000E00020C0B2704705490860F6
:1009300070470000003C0140043C0140083C01407D
:100940000C3C0140143C0140C9B2002904D00C49C0
:100950000A681043086004E009490A6832EA0000A6
:1009600008607047C9B2002904D006490A681043DC
:10097000086004E003490A6832EA00000860704732
:1009800030380240443802401A4908431A49086086
:100990007047002100210F23C17800291FD016497C
:1009A000096811F4E061D1F5E061090AD1F10402AE
:1009B000DBB20B41417811FA02F281780B401A4305
:1009C00012010E490378CA540121027812F01F0265
:1009D00091400B4A0078401142F8201009E00121B3
:1009E000027812F01F029140064A0078401142F846
:1009F000201070470000FA050CED00E000E400E074
:100A000000E100E080E100E080B53C48016851F47D
:100A1000700101603A49086850F001000860002048
:100A2000384A10600A68384802400A603748384A35
:100A30001060086830F480200860002035490860A4
:100A400000F005F85FF000603349086001BD82B036
:100A500000200190002000902949086850F480305F
:100A60000860086810F4003000900198401C019064
:100A70000098002803D10198B0F5A04FF1D1086883
:100A8000800302D50120009001E000200090009832
:100A900001282FD12148026852F08052026020487C
:100AA000026852F44042026016480268026002681E
:100AB00052F400420260026852F4A0520260194AE5
:100AC000134B1A600A6852F080720A600A68920139
:100AD000FCD540F20571144A11600168890889004B
:100AE0000160016851F002010160016811F00C0120
:100AF0000829FAD102B070470000000088ED00E03C
:100B00000038024008380240FFFFF6FE1030002493
:100B1000043802400C38024008ED00E04038024042
:100B20000070004008544007003C02408088C00527
:100B3000C00D704710B400220022002200220A00DB
:100B400040F66A1392B29A420B00DBB25B09DBB249
:100B50000A0092B212F01F02012414FA02F2012BD1
:100B600002D183891A4006E0022B02D1038A1A407F
:100B700001E0838A1A4089B2090A89B214FA01F1A4
:100B800000880140002A03D0002901D0012000E0A4
:100B90000020C0B210BC704710B5104C40F2255177
:100BA0002000FFF7C7FF002816D02000FFF7BEFF88
:100BB0000B490C4A0B68D0540868105C0D2808D10A
:100BC00000200B68D0540120074A107000200860F4
:100BD00002E00868401C086010BD000000440040AE
:100BE0005C000020180000206000002030B40025C8
:100BF00012E050F8042BD30744BF4A44521E091F89
:100C0000042942F8045BFAD213468C0744BF1580CE
:100C10009B1CC90748BF1D7050F8041B0029E8D170
:100C200030BC70470EE002684368024408305FEA57
:100C3000C37C44BF4B445B1E52F804CB43F804CB47
:100C4000091FF9D150F8041B0029ECD170477047F7
:100C5000FEE7FEE7FEE7FEE7704770477047704724
:100C600010B5074979441831064C7C44163404E029
:100C70000A68081D114488470146A142F8D110BDF9
:100C80002C0000004C0000004EF68851CEF200010E
:100C9000086840F470000860BFF34F8FBFF36F8F98
:100CA0004FF00170E1EE100A7047000041FFFFFFB6
:100CB0004C000000180000200000000069FFFFFF4A
:100CC000180000007000000000000020000000007C
:100CD00000F00DF8002801D0FFF7C2FFAFF300804D
:100CE0000020AFF30080FFF778FB00F002F801204E
:100CF000704700F001B800000746384600F002F8DF
:100D0000FBE7000080B5AFF30080024A1100182015
:100D1000ABBEFBE7260002000548014603B4684667
:100D200080F30988AFF30080FFF7AEFFFFF7D0FF35
:100D3000A5EDF5FE3F065B4F666D7C077F67777C10
:100D4000395E797108800000320000000148804758
:100D500001480047090A0008190D0008FFF7FEBF07
:100D6000FFF7FEBFFFF7FEBFFFF7FEBFFFF7FEBFB7
:100D7000FFF7FEBFFFF7FEBFFFF7FEBFFFF7FEBFA7
:100D8000FFF7FEBFFFF7FEBFFFF7FEBFFFF7FEBF97
:100D9000FFF7FEBFFFF7FEBFFFF7FEBFFFF7FEBF87
:100DA000FFF7FEBFFFF7FEBFFFF7FEBFFFF7FEBF77
:100DB000FFF7FEBFFFF7FEBFFFF7FEBFFFF7FEBF67
:100DC000FFF7FEBFFFF7FEBFFFF7FEBFFFF7FEBF57
:100DD000FFF7FEBFFFF7FEBFFFF7FEBFFFF7FEBF47
:100DE000FFF7FEBFFFF7FEBFFFF7FEBFFFF7FEBF37
:100DF000FFF7FEBFFFF7FEBFFFF7FEBFFFF7FEBF27
:100E0000FFF7FEBFFFF7FEBFFFF7FEBFFFF7FEBF16
:100E1000FFF7FEBFFFF7FEBFFFF7FEBFFFF7FEBF06
:100E2000FFF7FEBFFFF7FEBFFFF7FEBFFFF7FEBFF6
:100E3000FFF7FEBFFFF7FEBFFFF7FEBFFFF7FEBFE6
:100E4000FFF7FEBFFFF7FEBFFFF7FEBFFFF7FEBFD6
:100E5000FFF7FEBFFFF7FEBFFFF7FEBFFFF7FEBFC6
:100E6000FFF7FEBFFFF7FEBFFFF7FEBFFFF7FEBFB6
:100E7000FFF7FEBFFFF7FEBFFFF7FEBFFFF7FEBFA6
:040E8000FFF7FEBFBB
:0400000508000D19C9
:00000001FF
