:020000040800F2
:1000000058200020F1070008790700087B07000846
:100010007D0700087F070008810700080000000036
:10002000000000000000000000000000830700083E
:1000300085070008000000008707000889070008FE
:100040000108000805080008090800080D08000854
:100050001108000815080008190800081D08000804
:100060002108000825080008290800082D080008B4
:100070003108000835080008390800083D08000864
:100080004108000845080008490800084D08000814
:100090005108000855080008590800085D080008C4
:1000A0006108000865080008690800086D08000874
:1000B0007108000875080008790800087D08000824
:1000C0008108000885080008890800088D080008D4
:1000D0009108000895080008C9060008990800085A
:1000E0009D080008A1080008A5080008A908000844
:1000F000AD080008B1080008B5080008B9080008F4
:10010000BD080008C1080008C5080008C9080008A3
:10011000CD080008D1080008D5080008D908000853
:10012000DD080008E1080008E5080008E908000803
:10013000ED080008F1080008F5080008F9080008B3
:10014000FD08000801090008050900080909000860
:100150000D0900081109000815090008190900080F
:100160001D090008210900082509000829090008BF
:100170002D0900083109000835090008390900086F
:100180003D0900084109000881B00021009144F2B6
:10019000A0114843009002E00098401E0090009893
:1001A0000028F9D101B070472DE9F04705004FF460
:1001B0007A7095FBF0F44FF47A7095FBF0F100FB48
:1001C0001155642095FBF0F6642095FBF0F100FBDF
:1001D00011550A2095FBF0F70A2095FBF0F100FB82
:1001E00011555FF0000839E0DFF8FC90DFF8FCA063
:1001F0002000C0B21AF8001051F4606189B248467C
:1002000000F0C4F80120FFF7BFFF3000C0B21AF8B9
:10021000001051F4506189B2484600F0B7F801204F
:10022000FFF7B2FF3800C0B21AF8001051F4306185
:1002300089B2484600F0AAF80120FFF7A5FF280080
:10024000C0B21AF8001051F4E06189B2484600F0DB
:100250009DF80120FFF798FF18F10108B8F11E0F73
:10026000C2DBBDE8F0873EB50121052000F0D6F8DD
:100270000121012000F0E0F801208DF804000020A9
:100280008DF8060003208DF8050000208DF807008A
:1002900040F6FF7000906946134800F02FF80220E6
:1002A0008DF804004FF480700090114C69462000D6
:1002B00000F024F801220821200000F06AF80D4C1B
:1002C000012300225021200000F0D8F80121200055
:1002D00000F0C6F8084D200000F0C0F8286028683B
:1002E000FFF762FFF6E70000000802400000002070
:1002F000000002400000014014000020F0B4002281
:100300000022002200233DE0012414FA03F20D68CC
:100310001540954235D1032502685E0015FA06F6B0
:10032000B243026006680F795A0097403E43066068
:100330000A79012A02D00A79022A16D182685E005F
:1003400015FA06F6B243826086684F795A009740E4
:100350003E43866042689C4032EA0404446042683E
:100360008C799C40A4B222434260C4685A009540F4
:1003700034EA0505C560C468CD795A0095402C4320
:10038000C4605B1C102BBFD3F0BC704789B24161C5
:10039000704770B400230023D2B28B0013F01C030B
:1003A0009A400B009BB2DB1000EB83030C00A4B25D
:1003B000E41000EB8404246A0F258E0016F01C065E
:1003C000B540AC431C620B009BB2DB1000EB830317
:1003D0001B6A1A4389B2C91000EB8100026270BC2B
:1003E000704730B5016884684218416802EB5103D8
:1003F000C90703D54C4401E0491C08D19A4218BFF3
:1004000012F9011B01D10C3030BD12F8015B00293B
:1004100004F8015BF0D4491EF7D5EFE7C9B2002913
:1004200004D00C490A681043086004E009490A68CE
:1004300032EA000008607047C9B2002904D00649BA
:100440000A681043086004E003490A6832EA0000C1
:10045000086070473038024044380240406A7047B4
:10046000C9B2002904D0018851F00101018004E0E3
:1004700002884FF6FE710A400280704738B50400CA
:100480000D001100280080B2602806D19BB2012225
:1004900089B2200000F033F805E09BB2012289B256
:1004A000200000F012F8290089B2200000F005F8C1
:1004B000208950F00700208131BD002203894FF6CA
:1004C0008F72134019430181704770B400240024D7
:1004D000058C4FF6FE7425400584058B068C4FF67F
:1004E0000C7425402A4352EA03124FF6F5731E405E
:1004F000314351F001010283018470BC704770B434
:10050000002400240024058C4FF6EF742540058458
:10051000058B068C090140F6FF44254055EA03355A
:1005200055EA02254FF65F721640314351F0100133
:100530000583018470BC704780B53C48016851F464
:10054000700101603A49086850F00100086000201D
:10055000384A10600A68384802400A603748384A0A
:100560001060086830F48020086000203549086079
:1005700000F005F85FF000603349086001BD82B00B
:1005800000200190002000902949086850F4803034
:100590000860086810F4003000900198401C019039
:1005A0000098002803D10198B0F5A04FF1D1086858
:1005B000800302D50120009001E000200090009807
:1005C00001282FD12148026852F080520260204851
:1005D000026852F4404202601648026802600268F3
:1005E00052F400420260026852F4A0520260194ABA
:1005F000134B1A600A6852F080720A600A6892010E
:10060000FCD540F20571144A11600168890889001F
:100610000160016851F002010160016811F00C01F4
:100620000829FAD102B070470000000088ED00E010
:100630000038024008380240FFFFF6FE1030002468
:10064000043802400C38024008ED00E04038024017
:100650000070004008544007003C02408088C005FC
:10066000C00D704710B400220022002200220A00B0
:1006700040F66A1392B29A420B00DBB25B09DBB21E
:100680000A0092B212F01F02012414FA02F2012BA6
:1006900002D183891A4006E0022B02D1038A1A4054
:1006A00001E0838A1A4089B2090A89B214FA01F179
:1006B00000880140002A03D0002901D0012000E079
:1006C0000020C0B210BC704710B5104C40F225514C
:1006D0002000FFF7C7FF002816D02000FFF7BEFF5D
:1006E0000B490C4A0B68D0540868105C0D2808D1DF
:1006F00000200B68D0540120074A107000200860C9
:1007000002E00868401C086010BD00000044004082
:100710004C000020180000205000002010B50749B0
:1007200079441831064C7C44163404E00A68081DEC
:10073000114488470146A142F8D110BD2C000000A9
:10074000380000004EF68851CEF20001086840F4EF
:1007500070000860BFF34F8FBFF36F8F4FF00170D1
:10076000E1EE100A704700007BFCFFFFD80100009B
:100770002A000000000000207047FEE7FEE7FEE7C9
:10078000FEE77047704770477047000000F00DF8B3
:10079000002801D0FFF7C2FFAFF300800020AFF3C5
:1007A0000080FFF760FD00F002F80120704700F0C4
:1007B00001B800000746384600F002F8FBE70000E9
:1007C00080B5AFF30080024A11001820ABBEFBE7F2
:1007D000260002000548014603B4684680F30988F4
:1007E000AFF30080FFF7AEFFFFF7D0FFA5EDF5FEFA
:1007F000014880470148004739050008D50700082F
:10080000FFF7FEBFFFF7FEBFFFF7FEBFFFF7FEBF1C
:10081000FFF7FEBFFFF7FEBFFFF7FEBFFFF7FEBF0C
:10082000FFF7FEBFFFF7FEBFFFF7FEBFFFF7FEBFFC
:10083000FFF7FEBFFFF7FEBFFFF7FEBFFFF7FEBFEC
:10084000FFF7FEBFFFF7FEBFFFF7FEBFFFF7FEBFDC
:10085000FFF7FEBFFFF7FEBFFFF7FEBFFFF7FEBFCC
:10086000FFF7FEBFFFF7FEBFFFF7FEBFFFF7FEBFBC
:10087000FFF7FEBFFFF7FEBFFFF7FEBFFFF7FEBFAC
:10088000FFF7FEBFFFF7FEBFFFF7FEBFFFF7FEBF9C
:10089000FFF7FEBFFFF7FEBFFFF7FEBFFFF7FEBF8C
:1008A000FFF7FEBFFFF7FEBFFFF7FEBFFFF7FEBF7C
:1008B000FFF7FEBFFFF7FEBFFFF7FEBFFFF7FEBF6C
:1008C000FFF7FEBFFFF7FEBFFFF7FEBFFFF7FEBF5C
:1008D000FFF7FEBFFFF7FEBFFFF7FEBFFFF7FEBF4C
:1008E000FFF7FEBFFFF7FEBFFFF7FEBFFFF7FEBF3C
:1008F000FFF7FEBFFFF7FEBFFFF7FEBFFFF7FEBF2C
:10090000FFF7FEBFFFF7FEBFFFF7FEBFFFF7FEBF1B
:10091000FFF7FEBFFFF7FEBFFFF7FEBFFFF7FEBF0B
:10092000FFF7FEBFFFF7FEBFFFF7FEBFFFF7FEBFFB
:10093000FFF7FEBFFFF7FEBFFFF7FEBFFFF7FEBFEB
:10094000FFF7FEBF113F065B4F666D7C077F677741
:090950007C395E79710880C10058
:04000005080007D513
:00000001FF
