:020000040800F2
:100000005020002081060008090600080B060008A1
:100010000D0600080F060008110600080000000089
:1000200000000000000000000000000013060008AF
:100030001506000800000000170600081906000851
:100040009106000895060008990600089D0600081C
:10005000A1060008A5060008A9060008AD060008CC
:10006000B1060008B5060008B9060008BD0600087C
:10007000C1060008C5060008C9060008CD0600082C
:10008000D1060008D5060008D9060008DD060008DC
:10009000E1060008E5060008E9060008ED0600088C
:1000A000F1060008F5060008F9060008FD0600083C
:1000B0000107000805070008090700080D070008E8
:1000C0001107000815070008190700081D07000898
:1000D000210700082507000859050008290700081E
:1000E0002D07000831070008350700083907000808
:1000F0003D070008410700084507000849070008B8
:100100004D07000851070008550700085907000867
:100110005D07000861070008650700086907000817
:100120006D070008710700087507000879070008C7
:100130007D07000881070008850700088907000877
:100140008D07000891070008950700089907000827
:100150009D070008A1070008A5070008A9070008D7
:10016000AD070008B1070008B5070008B907000887
:10017000BD070008C1070008C5070008C907000837
:10018000CD070008D107000881B00021009144F29A
:10019000A0114843009002E00098401E0090009893
:1001A0000028F9D101B070472DE9F84F04004FF451
:1001B0007A7094FBF0F54FF47A7094FBF0F100FB49
:1001C0001144642094FBF0F6642094FBF0F100FBF2
:1001D00011440A2094FBF0F70A2094FBF0F100FB95
:1001E00011445FF0000843E0DFF8E0900E2148463C
:1001F00000F0BAF8DFF8D8A0DFF8D8B02800C0B215
:100200001BF8001089B2504600F0AEF80120FFF74D
:10021000BBFF0D21484600F0A7F83000C0B21BF824
:10022000001089B2504600F09FF80120FFF7ACFFA4
:100230000B21484600F098F83800C0B21BF80010B7
:1002400089B2504600F090F80120FFF79DFF07218A
:10025000484600F089F82000C0B21BF8001089B2AF
:10026000504600F081F80120FFF78EFF18F10108D9
:10027000B8F11E0FB8DBBDE8F18F1CB500240121D9
:10028000052000F091F801208DF8040000208DF881
:10029000060003208DF8050000208DF807000F20D0
:1002A00000906946094800F017F8FF200090694661
:1002B000074800F011F82000FFF776FF641C42F2B7
:1002C0000F708442F7D10024F5E7000000000240DF
:1002D0000008024000000020F0B4002200220022AA
:1002E00000233DE0012414FA03F20D681540954205
:1002F00035D1032502685E0015FA06F6B2430260A6
:1003000006680F795A0097403E4306600A79012A31
:1003100002D00A79022A16D182685E0015FA06F622
:10032000B243826086684F795A0097403E438660A8
:1003300042689C4032EA0404446042688C799C40E4
:10034000A4B222434260C4685A00954034EA0505CD
:10035000C560C468CD795A0095402C43C4605B1CCD
:10036000102BBFD3F0BC704789B24161704730B5E4
:10037000016884684218416802EB5103C90703D53C
:100380004C4401E0491C08D19A4218BF12F9011BE4
:1003900001D10C3030BD12F8015B002904F8015B7B
:1003A000F0D4491EF7D5EFE7C9B2002904D00549BA
:1003B0000A681043086004E002490A6832EA000053
:1003C000086070473038024080B53C48016851F4FD
:1003D000700101603A49086850F00100086000208F
:1003E000384A10600A68384802400A603748384A7C
:1003F0001060086830F480200860002035490860EB
:1004000000F005F85FF000603349086001BD82B07C
:1004100000200190002000902949086850F48030A5
:100420000860086810F4003000900198401C0190AA
:100430000098002803D10198B0F5A04FF1D10868C9
:10044000800302D50120009001E000200090009878
:1004500001282FD12148026852F0805202602048C2
:10046000026852F440420260164802680260026864
:1004700052F400420260026852F4A0520260194A2B
:10048000134B1A600A6852F080720A600A6892017F
:10049000FCD540F20571144A116001688908890091
:1004A0000160016851F002010160016811F00C0166
:1004B0000829FAD102B070470000000088ED00E082
:1004C0000038024008380240FFFFF6FE10300024DA
:1004D000043802400C38024008ED00E04038024089
:1004E0000070004008544007003C02408088C0056E
:1004F000C00D704710B400220022002200220A0022
:1005000040F66A1392B29A420B00DBB25B09DBB28F
:100510000A0092B212F01F02012414FA02F2012B17
:1005200002D183891A4006E0022B02D1038A1A40C5
:1005300001E0838A1A4089B2090A89B214FA01F1EA
:1005400000880140002A03D0002901D0012000E0EA
:100550000020C0B210BC704710B5104C40F22551BD
:100560002000FFF7C7FF002816D02000FFF7BEFFCE
:100570000B490C4A0B68D0540868105C0D2808D150
:1005800000200B68D0540120074A1070002008603A
:1005900002E00868401C086010BD000000440040F4
:1005A00048000020140000204C00002010B507492E
:1005B00079441831064C7C44163404E00A68081D5E
:1005C000114488470146A142F8D110BD2C0000001B
:1005D000380000004EF68851CEF20001086840F461
:1005E00070000860BFF34F8FBFF36F8F4FF0017043
:1005F000E1EE100A7047000077FDFFFFD801000010
:100600002A000000000000207047FEE7FEE7FEE73A
:10061000FEE77047704770477047000000F00DF824
:10062000002801D0FFF7C2FFAFF300800020AFF336
:100630000080FFF722FE00F002F80120704700F072
:1006400001B800000746384600F002F8FBE700005A
:1006500080B5AFF30080024A11001820ABBEFBE763
:10066000260002000548014603B4684680F3098865
:10067000AFF30080FFF7AEFFFFF7D0FFA5EDF5FE6B
:100680000148804701480047C90300086506000883
:10069000FFF7FEBFFFF7FEBFFFF7FEBFFFF7FEBF8E
:1006A000FFF7FEBFFFF7FEBFFFF7FEBFFFF7FEBF7E
:1006B000FFF7FEBFFFF7FEBFFFF7FEBFFFF7FEBF6E
:1006C000FFF7FEBFFFF7FEBFFFF7FEBFFFF7FEBF5E
:1006D000FFF7FEBFFFF7FEBFFFF7FEBFFFF7FEBF4E
:1006E000FFF7FEBFFFF7FEBFFFF7FEBFFFF7FEBF3E
:1006F000FFF7FEBFFFF7FEBFFFF7FEBFFFF7FEBF2E
:10070000FFF7FEBFFFF7FEBFFFF7FEBFFFF7FEBF1D
:10071000FFF7FEBFFFF7FEBFFFF7FEBFFFF7FEBF0D
:10072000FFF7FEBFFFF7FEBFFFF7FEBFFFF7FEBFFD
:10073000FFF7FEBFFFF7FEBFFFF7FEBFFFF7FEBFED
:10074000FFF7FEBFFFF7FEBFFFF7FEBFFFF7FEBFDD
:10075000FFF7FEBFFFF7FEBFFFF7FEBFFFF7FEBFCD
:10076000FFF7FEBFFFF7FEBFFFF7FEBFFFF7FEBFBD
:10077000FFF7FEBFFFF7FEBFFFF7FEBFFFF7FEBFAD
:10078000FFF7FEBFFFF7FEBFFFF7FEBFFFF7FEBF9D
:10079000FFF7FEBFFFF7FEBFFFF7FEBFFFF7FEBF8D
:1007A000FFF7FEBFFFF7FEBFFFF7FEBFFFF7FEBF7D
:1007B000FFF7FEBFFFF7FEBFFFF7FEBFFFF7FEBF6D
:1007C000FFF7FEBFFFF7FEBFFFF7FEBFFFF7FEBF5D
:1007D000FFF7FEBF113F065B4F666D7C077F6777B3
:0907E0007C395E79710880C500C6
:040000050800066584
:00000001FF
