:020000040800F2
:1000000068200020790E00087B0D00087D0D000897
:100010007F0D0008810D0008830D0008000000001E
:10002000000000000000000000000000850D000836
:10003000870D000800000000890D00088B0D0008E6
:10004000890E00088D0E0008910E0008950E00081C
:10005000990E00089D0E0008E9020008130300082D
:100060003D030008670300087B030008A10E000899
:10007000A50E0008A90E0008AD0E0008B10E00087C
:10008000B50E0008B90E0008BD0E0008C10E00082C
:10009000C50E0008C90E0008CD0E00089D0300081B
:1000A000D10E000869020008D50E0008D90E00081C
:1000B000DD0E0008E10E0008E50E0008E90E00085C
:1000C000ED0E0008F10E0008F50E0008F90E00080C
:1000D000FD0E0008010F0008C50C0008050F000800
:1000E000090F00080D0F0008110F0008150F000878
:1000F000190F00081D0F0008210F0008250F000828
:10010000290F00082D0F0008310F0008350F0008D7
:10011000390F00083D0F0008410F0008450F000887
:10012000490F00084D0F0008510F0008550F000837
:10013000590F00085D0F0008610F0008650F0008E7
:10014000690F00086D0F0008710F0008750F000897
:10015000790F00087D0F0008810F0008850F000847
:10016000890F00088D0F0008910F0008950F0008F7
:10017000990F00089D0F0008A10F0008A50F0008A7
:10018000A90F0008AD0F000881B00021009144F2D2
:10019000A0114843009002E00098401E0090009893
:1001A0000028F9D101B070472DE9F04104000A2080
:1001B00094FBF0F50A2094FBF0F100FB11440026BB
:1001C0001EE0DFF88C74DFF88C842800C0B218F8C9
:1001D000001051F4306189B2380000F0A6FA012015
:1001E000FFF7D2FF2000C0B218F8001051F4E06110
:1001F00089B2380000F099FA0120FFF7C5FF761C9C
:10020000052EDEDBBDE8F0812DE9F04104000A2077
:1002100094FBF0F50A2094FBF0F100FB114400265A
:100220001EE0DFF82C74DFF82C842800C0B218F828
:10023000001051F4606189B2380000F076FA0120B4
:10024000FFF7A2FF2000C0B218F8001051F450616F
:1002500089B2380000F069FA0120FFF795FF761C9B
:10026000052EDEDBBDE8F08110B5DFF8EC4302219E
:10027000200000F037FB002817D00221200000F0FA
:1002800043FBDFF8D8030168491C016001681C29A1
:100290000BDB00210160DFF8C8030168491C016025
:1002A0000168642901DB002101600121200000F0C8
:1002B00019FB002817D00121200000F025FBDFF8F2
:1002C000A4030168491C0160016838290BDB002187
:1002D0000160DFF894030168491C0160016864292A
:1002E00001DB0021016010BD10B5012000F0AAFB68
:1002F00000280DD0DD4C4FF40071200000F00CFA06
:100300004FF48061200000F005FA012000F0A4FB0A
:1003100010BD10B5022000F095FB00280DD0D34C85
:100320004FF48061200000F0F7F94FF400712000D5
:1003300000F0F0F9022000F08FFB10BD10B5042092
:1003400000F080FB00280DD0C84C4FF480612000E5
:1003500000F0E2F94FF40071200000F0DDF9042014
:1003600000F07AFB10BD80B5082000F06BFB002880
:1003700002D0082000F070FB01BD80B5102000F015
:1003800061FB002809D0BA4801680A2902DB01682C
:100390000A390160102000F05FFB01BD80B520200C
:1003A00000F050FB00280AD0B14801685B2902DA4E
:1003B00001680A310160202000F04EFB10E040206F
:1003C00000F040FB002803D0402000F045FB07E090
:1003D000802000F037FB002802D0802000F03CFB9A
:1003E00001BD2DE9F8418DB032260121072000F032
:1003F00041FB01215FF4003000F04AFB01210120A4
:1004000000F046FB00208DF8080000208DF80A005F
:1004100003208DF8090000208DF80B00FF250195C1
:10042000944C01A9200000F02DF901208DF808005E
:1004300040F6FF70019001A9854800F023F90220E1
:100440008DF808004FF48077019701A9200000F093
:1004500019F901220821200000F06AF9864C0323D3
:1004600000225021200000F053FA0121200000F06A
:10047000CCF9019702208DF8080003208DF80900BF
:1004800000208DF80A0001208DF80B00774F01A99C
:10049000380000F0F7F84FF4C060019001208DF8AB
:1004A000080001A9380000F0EDF803220821380007
:1004B00000F03EF9039500208DF8100008208DF81B
:1004C000110001208DF8120003A800F07FFA4FF40C
:1004D000A06000F0EFFA06208DF8000001208DF8F2
:1004E000010001208DF8020001208DF8030068460C
:1004F00000F0E5FA07208DF8000000208DF80200DA
:10050000684600F0DCFA08208DF8000000208DF825
:100510000200684600F0D3FA09208DF800000020A0
:100520008DF80200684600F0CAFA0A208DF8000033
:1005300000208DF80200684600F0C1FA17208DF8FF
:10054000000000208DF80200684600F0B8FA4FF471
:10055000A06000F0AFFA19208DF8000001208DF89E
:10056000010001208DF8020001208DF8030068468B
:1005700000F0A5FAA720ADF8140044F22355069523
:100580000020ADF81C000020ADF81600DFF8C88090
:1005900005A9404600F0F4F86020ADF820000120E5
:1005A000ADF8220042F291200A900020ADF82C0014
:1005B00008A9404600F037F90321404600F0A4F9AD
:1005C00001220321404600F081F90821404600F055
:1005D00075F90121404600F00AF90121404600F07A
:1005E00014F900224FF40071380000F097F800224F
:1005F0004FF48061380000F091F81FE01168B120DD
:10060000414303E010686428F8D129001B480160C9
:1006100016681068FFF7F8FD194F200000F0E5F8A4
:1006200038603868642806DB3868642190FBF1F292
:1006300001FB120038603868FFF7B6FD0C4A1068FD
:10064000B042E6D010680028DCD10121DEE70000CE
:100650000008024000000020004401405400002037
:10066000580000204C0000205000002000040240F0
:10067000140000200000024000000140344401400A
:100680005C000020F0B400220022002200233DE0A4
:10069000012414FA03F20D681540954235D1032563
:1006A00002685E0015FA06F6B243026006680F792A
:1006B0005A0097403E4306600A79012A02D00A791F
:1006C000022A16D182685E0015FA06F6B2438260ED
:1006D00086684F795A0097403E43866042689C4046
:1006E00032EA0404446042688C799C40A4B22243FC
:1006F0004260C4685A00954034EA0505C560C46884
:10070000CD795A0095402C43C4605B1C102BBFD39D
:10071000F0BC70470183704741837047D2B2002A12
:1007200001D0018300E04183704789B24161704785
:1007300070B400230023D2B28B0013F01C039A4044
:100740000B009BB2DB1000EB83030C00A4B2E4109F
:1007500000EB8404246A0F258E0016F01C06B540B9
:10076000AC431C620B009BB2DB1000EB83031B6AE3
:100770001A4389B2C91000EB8100026270BC704755
:1007800010B400220488464B98420ED04A4A904248
:100790000BD0B0F1804F08D0424A904205D0424A77
:1007A000904202D0414A904204D14FF68F721440D9
:1007B0004A8814433E4A904207D03E4A904204D0B1
:1007C0004FF6FF4214400A89144304804A68C2620B
:1007D0000A880285984202D0374A904201D1897A2C
:1007E00001860121818210BC7047406A7047C9B2FE
:1007F000002904D0018851F08001018004E00288C2
:100800004FF67F710A4002807047C9B2002904D0B8
:10081000018851F00101018004E002884FF6FE7169
:100820000A400280704730B4002200220022038C6C
:100830004FF6FE7213400384058C8388048B4FF6B9
:100840008F7214404FF6FC7214400A8814434FF61E
:10085000FD7215408A8915434A881543104A904213
:1008600002D0154A904213D14FF6F7721540CA894B
:1008700015434FF6FB7215408A8815434FF6FF6209
:1008800013404FF6FF5213400A8A13434A8A134318
:100890008380048389684163058430BC704700000D
:1008A000000001400004004000080040000C00402F
:1008B0000010004000140040000401400022038B9F
:1008C0004FF6F7721340194301837047D2B2002AE2
:1008D00003D082891143818103E0828932EA0101D8
:1008E00081817047002200220022028A0A4080890A
:1008F000014092B2002A04D089B2002901D001201F
:1009000000E00020C0B2704789B2C943018270473D
:1009100038B504000D001100280080B2602806D10F
:100920009BB2012289B2200000F033F805E09BB2AF
:10093000012289B2200000F012F8290089B22000BB
:1009400000F005F8208950F00700208131BD002219
:1009500003894FF68F72134019430181704770B4B9
:1009600000240024058C4FF6FE7425400584058B79
:10097000068C4FF60C7425402A4352EA03124FF6B8
:10098000F5731E40314351F001010283018470BCB4
:10099000704770B4002400240024058C4FF6EF74D7
:1009A00025400584058B068C090140F6FF4425404F
:1009B00055EA033555EA02254FF65F72164031437A
:1009C00051F010010583018470BC704730B40021E0
:1009D000234A1300817900292CD0214C2568016815
:1009E0008D4325601F4C256801688D432560017982
:1009F0005B181C6801680C431C601B4B1C68016879
:100A00008C431C60194C256801688D432560417931
:100A1000102908D11A6801680A431A602168006821
:100A2000014321600CE0417951180A6800680243D3
:100A30000A6005E0017959180A68006882430A6073
:100A400030BC704700210A490968014201D00120E9
:100A500000E00020C0B27047054908607047000000
:100A6000003C0140043C0140083C01400C3C01407A
:100A7000143C0140C9B2002904D00C490A68104353
:100A8000086004E009490A6832EA0000086070471B
:100A9000C9B2002904D006490A681043086004E07E
:100AA00003490A6832EA00000860704730380240A3
:100AB000443802401A4908431A4908607047002127
:100AC00000210F23C17800291FD01649096811F4AD
:100AD000E061D1F5E061090AD1F10402DBB20B411A
:100AE000417811FA02F281780B401A4312010E4943
:100AF0000378CA540121027812F01F0291400B4A78
:100B00000078401142F8201009E00121027812F02B
:100B10001F029140064A0078401142F820107047A9
:100B20000000FA050CED00E000E400E000E100E068
:100B300080E100E080B53C48016851F4700101603B
:100B40003A49086850F0010008600020384A1060F7
:100B50000A68384802400A603748384A1060086816
:100B600030F48020086000203549086000F005F866
:100B70005FF000603349086001BD82B00020019041
:100B8000002000902949086850F480300860086807
:100B900010F4003000900198401C0190009800284B
:100BA00003D10198B0F5A04FF1D10868800302D5B8
:100BB0000120009001E000200090009801282FD132
:100BC0002148026852F0805202602048026852F4C4
:100BD00040420260164802680260026852F4004215
:100BE0000260026852F4A0520260194A134B1A6064
:100BF0000A6852F080720A600A689201FCD540F2DD
:100C00000571144A11600168890889000160016852
:100C100051F002010160016811F00C010829FAD1BC
:100C200002B070470000000088ED00E0003802408C
:100C300008380240FFFFF6FE10300024043802405E
:100C40000C38024008ED00E04038024000700040DF
:100C500008544007003C02408088C005C00D704722
:100C600010B400220022002200220A0040F66A137B
:100C700092B29A420B00DBB25B09DBB20A0092B27D
:100C800012F01F02012414FA02F2012B02D183890F
:100C90001A4006E0022B02D1038A1A4001E0838A3F
:100CA0001A4089B2090A89B214FA01F10088014098
:100CB000002A03D0002901D0012000E00020C0B2AA
:100CC00010BC704710B5104C40F225512000FFF7C2
:100CD000C7FF002816D02000FFF7BEFF0B490C4AC3
:100CE0000B68D0540868105C0D2808D100200B68F0
:100CF000D0540120074A10700020086002E0086804
:100D0000401C086010BD000000440040600000204E
:100D1000180000206400002030B4002512E050F8D4
:100D2000042BD30744BF4A44521E091F042942F82A
:100D3000045BFAD213468C0744BF15809B1CC9077D
:100D400048BF1D7050F8041B0029E8D130BC704723
:100D50000EE002684368024408305FEAC37C44BF87
:100D60004B445B1E52F804CB43F804CB091FF9D166
:100D700050F8041B0029ECD170477047FEE7FEE7EE
:100D8000FEE7FEE7704770477047704710B50749A8
:100D900079441831064C7C44163404E00A68081D76
:100DA000114488470146A142F8D110BD2C00000033
:100DB0004C0000004EF68851CEF20001086840F465
:100DC00070000860BFF34F8FBFF36F8F4FF001705B
:100DD000E1EE100A7047000041FFFFFF50000000E5
:100DE000180000200000000069FFFFFF180000004D
:100DF00070000000000000200000000000F00DF86E
:100E0000002801D0FFF7C2FFAFF300800020AFF34E
:100E10000080FFF7E6FA00F002F80120704700F0CA
:100E200001B800000746384600F002F8FBE7000072
:100E300080B5AFF30080024A11001820ABBEFBE77B
:100E4000260002000548014603B4684680F309887D
:100E5000AFF30080FFF7AEFFFFF7D0FFA5EDF5FE83
:100E60003F065B4F666D7C077F67777C395E7971E3
:100E70000880000032000000014880470148004718
:100E8000350B0008450E0008FFF7FEBFFFF7FEBF59
:100E9000FFF7FEBFFFF7FEBFFFF7FEBFFFF7FEBF86
:100EA000FFF7FEBFFFF7FEBFFFF7FEBFFFF7FEBF76
:100EB000FFF7FEBFFFF7FEBFFFF7FEBFFFF7FEBF66
:100EC000FFF7FEBFFFF7FEBFFFF7FEBFFFF7FEBF56
:100ED000FFF7FEBFFFF7FEBFFFF7FEBFFFF7FEBF46
:100EE000FFF7FEBFFFF7FEBFFFF7FEBFFFF7FEBF36
:100EF000FFF7FEBFFFF7FEBFFFF7FEBFFFF7FEBF26
:100F0000FFF7FEBFFFF7FEBFFFF7FEBFFFF7FEBF15
:100F1000FFF7FEBFFFF7FEBFFFF7FEBFFFF7FEBF05
:100F2000FFF7FEBFFFF7FEBFFFF7FEBFFFF7FEBFF5
:100F3000FFF7FEBFFFF7FEBFFFF7FEBFFFF7FEBFE5
:100F4000FFF7FEBFFFF7FEBFFFF7FEBFFFF7FEBFD5
:100F5000FFF7FEBFFFF7FEBFFFF7FEBFFFF7FEBFC5
:100F6000FFF7FEBFFFF7FEBFFFF7FEBFFFF7FEBFB5
:100F7000FFF7FEBFFFF7FEBFFFF7FEBFFFF7FEBFA5
:100F8000FFF7FEBFFFF7FEBFFFF7FEBFFFF7FEBF95
:100F9000FFF7FEBFFFF7FEBFFFF7FEBFFFF7FEBF85
:100FA000FFF7FEBFFFF7FEBFFFF7FEBFFFF7FEBF75
:0400000508000E459C
:00000001FF
