:020000040800F2
:10000000002000206107000873050008750500083E
:1000100077050008790500087B050008000000004E
:100020000000000000000000000000007D05000846
:100030007F05000800000000810500088305000816
:100040007107000875070008790700087D07000898
:100050008107000885070008890700088D07000848
:100060009107000895070008990700089D070008F8
:10007000A1070008A5070008A9070008AD070008A8
:10008000B1070008B5070008B9070008BD07000858
:10009000C1070008C5070008C9070008CD07000808
:1000A000D1070008D5070008D9070008DD070008B8
:1000B000E1070008E5070008E9070008ED07000868
:1000C000F1070008F5070008F9070008FD07000818
:1000D0000108000805080008090800080D080008C4
:1000E0001108000815080008190800081D08000874
:1000F0002108000825080008290800082D08000824
:100100003108000835080008390800083D080008D3
:100110004108000845080008490800084D08000883
:100120005108000855080008590800085D08000833
:100130006108000865080008690800086D080008E3
:100140007108000875080008790800087D08000893
:100150008108000885080008890800088D08000843
:100160009108000895080008990800089D080008F3
:10017000A1080008A5080008A9080008AD080008A3
:10018000B1080008B508000881B00021009144F2D0
:10019000A0114843009002E00098401E0090009893
:1001A0000028F9D101B0704781B000210091000111
:1001B000009002E00098401E009000980028F9D1BD
:1001C00001B07047E0B50121062000F073F901206D
:1001D0008DF8040000208DF8060003208DF805003E
:1001E00001208DF80700072000906946AC4800F018
:1001F00071F9FF2000906946AA4800F06BF907BD2D
:1002000010B5A74C0421200000F0ACF90520FFF741
:10021000BBFF0421200000F0A7F910BD10B5A04CD1
:100220000221200000F0A0F90121200000F09CF93B
:1002300038219C4800F09AF9FFF7E2FF10BD10B595
:100240000421974800F090F90F20FFF79DFFFFF77A
:10025000E5FF0A20FFF798FFFFF7E0FF9620FFF782
:10026000A3FFFFF7DBFF8F4C0F21200000F07EF98A
:10027000FFF7C6FF0621200000F078F9FFF7C0FF66
:100280000121200000F072F9FFF7BAFF10BD10B590
:1002900004000121824800F065F9E4B2210089B22E
:1002A000804800F063F9FFF7ABFF10BD70B50400A4
:1002B0000D007B4E0121300000F056F90221300084
:1002C00000F052F92800C0B2002807D1E4B280340F
:1002D000210089B2734800F049F909E0EDB2012D1F
:1002E00006D1E4B2C034210089B26E4800F03EF974
:1002F000FFF786FF70BD38B50400694D0121280065
:1003000000F032F90221280000F02EF92000C0B2DE
:10031000022804D11821634800F028F906E0E4B26D
:10032000012C03D11C215F4800F020F9FFF768FF82
:1003300031BD2DE9F04104000D0016000827DFF85B
:1003400060810121404600F00FF90221404600F093
:100350000BF9E4B2012C01D1042100E00021EDB23F
:10036000012D01D1022000E00020F6B2012E01D1C2
:10037000012200E00022FFB2C9B23943C0B20143FA
:10038000D2B2114389B2474800F0F0F8FFF738FFC6
:10039000BDE8F08110B5424C0121200000F0E4F8E6
:1003A0000221200000F0E0F801213E4800F0DEF8D4
:1003B000FFF726FF0A20FFF7E7FE10BD10B5140077
:1003C000C9B2C0B2FFF772FF03E02078FFF75FFF0A
:1003D000641C20780028F8D110BD10B5FFF7F2FE9C
:1003E000FFF72DFF20E000210020FFF75FFF022232
:1003F00001210120FFF79DFF4FF47A70FFF7C4FE43
:10040000012201210120FFF794FF4FF47A70FFF7DA
:10041000BBFEFFF7BFFF244A01210020FFF7CEFFFC
:100420004FF47A70FFF7B0FEFFF7B4FF1F4A0021C8
:100430000020FFF7C3FF1E4A01210020FFF7BEFF87
:100440004FF47A70FFF7A0FE002412E00122012190
:100450000220FFF76EFF4FF47A70FFF795FE01223E
:1004600001210120FFF765FF4FF47A70FFF78CFE42
:10047000641C052CEADB002403E00220FFF73BFFAD
:1004800006E0142CAFDA0A2CF7DA0120FFF733FF6D
:100490004FF47A70FFF778FE641CF2E7000000006A
:1004A000000402400008024050070008300700081E
:1004B00040070008C9B2002904D005490A68104362
:1004C000086004E002490A6832EA000008607047E8
:1004D00030380240F0B400220022002200233DE028
:1004E000012414FA03F20D681540954235D1032515
:1004F00002685E0015FA06F6B243026006680F79DC
:100500005A0097403E4306600A79012A02D00A79D0
:10051000022A16D182685E0015FA06F6B24382609E
:1005200086684F795A0097403E43866042689C40F7
:1005300032EA0404446042688C799C40A4B22243AD
:100540004260C4685A00954034EA0505C560C46835
:10055000CD795A0095402C43C4605B1C102BBFD34F
:10056000F0BC7047018370474183704789B2416195
:1005700070477047FEE7FEE7FEE7FEE7704770470B
:100580007047704780B53C48016851F470010160C4
:100590003A49086850F0010008600020384A1060AD
:1005A0000A68384802400A603748384A10600868CC
:1005B00030F48020086000203549086000F005F81C
:1005C0005FF000603349086001BD82B000200190F7
:1005D000002000902949086850F4803008600868BD
:1005E00010F4003000900198401C01900098002801
:1005F00003D10198B0F5A04FF1D10868800302D56E
:100600000120009001E000200090009801282FD1E7
:100610002148026852F0805202602048026852F479
:1006200040420260164802680260026852F40042CA
:100630000260026852F4A0520260194A134B1A6019
:100640000A6852F080720A600A689201FCD540F292
:100650000571144A11600168890889000160016808
:1006600051F002010160016811F00C010829FAD172
:1006700002B070470000000088ED00E00038024042
:1006800008380240FFFFF6FE103000240438024014
:100690000C38024008ED00E0403802400070004095
:1006A00008544007003C02404EF68851CEF200014B
:1006B000086840F470000860BFF34F8FBFF36F8F7E
:1006C0004FF00170E1EE100A7047000000F00DF8E5
:1006D000002801D0AFF30080AFF300800020AFF31B
:1006E0000080FFF77AFE00F002F80120704700F06A
:1006F00001B800000746384600F002F8FBE70000AA
:1007000080B5AFF30080024A11001820ABBEFBE7B2
:10071000260002000548014603B4684680F30988B4
:10072000AFF30080FFF7C0FFFFF7D0FFA5EDF5FEA8
:100730004842452D4D756C74692049490000000000
:10074000424153452050524F4752414D0000000056
:1007500020456E64206F662044656D6F20000000A8
:100760000148804701480047850500081507000833
:10077000FFF7FEBFFFF7FEBFFFF7FEBFFFF7FEBFAD
:10078000FFF7FEBFFFF7FEBFFFF7FEBFFFF7FEBF9D
:10079000FFF7FEBFFFF7FEBFFFF7FEBFFFF7FEBF8D
:1007A000FFF7FEBFFFF7FEBFFFF7FEBFFFF7FEBF7D
:1007B000FFF7FEBFFFF7FEBFFFF7FEBFFFF7FEBF6D
:1007C000FFF7FEBFFFF7FEBFFFF7FEBFFFF7FEBF5D
:1007D000FFF7FEBFFFF7FEBFFFF7FEBFFFF7FEBF4D
:1007E000FFF7FEBFFFF7FEBFFFF7FEBFFFF7FEBF3D
:1007F000FFF7FEBFFFF7FEBFFFF7FEBFFFF7FEBF2D
:10080000FFF7FEBFFFF7FEBFFFF7FEBFFFF7FEBF1C
:10081000FFF7FEBFFFF7FEBFFFF7FEBFFFF7FEBF0C
:10082000FFF7FEBFFFF7FEBFFFF7FEBFFFF7FEBFFC
:10083000FFF7FEBFFFF7FEBFFFF7FEBFFFF7FEBFEC
:10084000FFF7FEBFFFF7FEBFFFF7FEBFFFF7FEBFDC
:10085000FFF7FEBFFFF7FEBFFFF7FEBFFFF7FEBFCC
:10086000FFF7FEBFFFF7FEBFFFF7FEBFFFF7FEBFBC
:10087000FFF7FEBFFFF7FEBFFFF7FEBFFFF7FEBFAC
:10088000FFF7FEBFFFF7FEBFFFF7FEBFFFF7FEBF9C
:10089000FFF7FEBFFFF7FEBFFFF7FEBFFFF7FEBF8C
:1008A000FFF7FEBFFFF7FEBFFFF7FEBFFFF7FEBF7C
:0808B000FFF7FEBFFFF7FEBFDA
:0400000508000715D3
:00000001FF
