:020000040800F2
:1000000018200020A9050008BF040008C10400084A
:10001000C3040008C5040008C7040008000000006D
:10002000000000000000000000000000C9040008FB
:10003000CB04000800000000CD040008CF04000835
:10004000B9050008BD050008C1050008C505000880
:10005000C9050008CD050008D1050008D505000830
:10006000D9050008DD050008E1050008E5050008E0
:10007000E9050008ED050008F1050008F505000890
:10008000F9050008FD05000801060008050600083E
:10009000090600080D0600081106000815060008EC
:1000A000190600081D06000821060008250600089C
:1000B000290600082D06000831060008350600084C
:1000C000390600083D0600084106000845060008FC
:1000D000490600084D0600085106000855060008AC
:1000E000590600085D06000861060008650600085C
:1000F000690600086D06000871060008750600080C
:10010000790600087D0600088106000885060008BB
:10011000890600088D06000891060008950600086B
:10012000990600089D060008A1060008A50600081B
:10013000A9060008AD060008B1060008B5060008CB
:10014000B9060008BD060008C1060008C50600087B
:10015000C9060008CD060008D1060008D50600082B
:10016000D9060008DD060008E1060008E5060008DB
:10017000E9060008ED060008F1060008F50600088B
:10018000F9060008FD060008FEB50121072000F071
:100190008FF801208DF8040000208DF80600032060
:1001A0008DF8050000208DF807004FF47F40009087
:1001B0003B4D6946280000F08BF840F6FF70009038
:1001C000384E6946300000F083F800208DF80400B6
:1001D000FF200090344F6946380000F079F84FF462
:1001E0007061300000F0BFF805E03048017889B256
:1001F000300000F0BAF8380000F0B2F8040004F063
:10020000FF04210289B2280000F0AFF8002CECD0E6
:10021000012C06D12548417889B2300000F0A5F8BC
:10022000E9E7022C06D12148817889B2300000F03C
:100230009CF8E0E7042C06D11C48C17889B2300054
:1002400000F093F8D7E7082C06D11848017989B255
:10025000300000F08AF8CEE7102C06D1134841791F
:1002600089B2300000F081F8C5E7202C06D10F4894
:10027000817989B2300000F078F8BCE7402C06D1D3
:100280000A48C17989B2300000F06FF8B3E7802CDA
:10029000B1D10648017A89B2300000F066F8AAE7C9
:1002A000000402400008024000000240000000205C
:1002B000C9B2002904D005490A681043086004E067
:1002C00002490A6832EA000008607047303802408C
:1002D000F0B400220022002200233DE0012414FAA1
:1002E00003F20D681540954235D1032502685E0082
:1002F00015FA06F6B243026006680F795A00974075
:100300003E4306600A79012A02D00A79022A16D1F0
:1003100082685E0015FA06F6B243826086684F79FD
:100320005A0097403E43866042689C4032EA04048B
:10033000446042688C799C40A4B222434260C46805
:100340005A00954034EA0505C560C468CD795A0065
:1003500095402C43C4605B1C102BBFD3F0BC70478E
:10036000006980B270474183704789B2416170472C
:1003700080B53C48016851F4700101603A49086851
:1003800050F0010008600020384A10600A683848C0
:1003900002400A603748384A1060086830F480200C
:1003A000086000203549086000F005F85FF0006043
:1003B0003349086001BD82B0002001900020009008
:1003C0002949086850F480300860086810F400304B
:1003D00000900198401C01900098002803D10198DA
:1003E000B0F5A04FF1D10868800302D5012000903C
:1003F00001E000200090009801282FD121480268D8
:1004000052F0805202602048026852F4404202607A
:10041000164802680260026852F4004202600268F4
:1004200052F4A0520260194A134B1A600A6852F043
:1004300080720A600A689201FCD540F20571144A84
:1004400011600168890889000160016851F00201AA
:100450000160016811F00C010829FAD102B070475F
:100460000000000088ED00E000380240083802403B
:10047000FFFFF6FE10300024043802400C38024022
:1004800008ED00E04038024000700040085440078A
:10049000003C02400EE002684368024408305FEA14
:1004A000C37C44BF4B445B1E52F804CB43F804CBDF
:1004B000091FF9D150F8041B0029ECD1704770478F
:1004C000FEE7FEE7FEE7FEE77047704770477047BC
:1004D00010B5074979441831064C7C44163404E0C1
:1004E0000A68081D114488470146A142F8D110BD91
:1004F0002C0000003C0000004EF68851CEF20001B6
:10050000086840F470000860BFF34F8FBFF36F8F2F
:100510004FF00170E1EE100A7047000079FFFFFF15
:100520001400000070000000000000200000000027
:1005300000F00DF8002801D0FFF7CAFFAFF30080EC
:100540000020AFF30080FFF71FFE00F002F801204B
:10055000704700F001B800000746384600F002F886
:10056000FBE7000080B5AFF30080024A11001820BD
:10057000ABBEFBE7260002000548014603B468460F
:1005800080F30988AFF30080FFF7B6FFFFF7D0FFD5
:10059000A5EDF5FE3F065B4F666D7C077F67777CB8
:1005A000395E7971088000000148804701480047A2
:1005B0007103000879050008FFF7FEBFFFF7FEBFD3
:1005C000FFF7FEBFFFF7FEBFFFF7FEBFFFF7FEBF5F
:1005D000FFF7FEBFFFF7FEBFFFF7FEBFFFF7FEBF4F
:1005E000FFF7FEBFFFF7FEBFFFF7FEBFFFF7FEBF3F
:1005F000FFF7FEBFFFF7FEBFFFF7FEBFFFF7FEBF2F
:10060000FFF7FEBFFFF7FEBFFFF7FEBFFFF7FEBF1E
:10061000FFF7FEBFFFF7FEBFFFF7FEBFFFF7FEBF0E
:10062000FFF7FEBFFFF7FEBFFFF7FEBFFFF7FEBFFE
:10063000FFF7FEBFFFF7FEBFFFF7FEBFFFF7FEBFEE
:10064000FFF7FEBFFFF7FEBFFFF7FEBFFFF7FEBFDE
:10065000FFF7FEBFFFF7FEBFFFF7FEBFFFF7FEBFCE
:10066000FFF7FEBFFFF7FEBFFFF7FEBFFFF7FEBFBE
:10067000FFF7FEBFFFF7FEBFFFF7FEBFFFF7FEBFAE
:10068000FFF7FEBFFFF7FEBFFFF7FEBFFFF7FEBF9E
:10069000FFF7FEBFFFF7FEBFFFF7FEBFFFF7FEBF8E
:1006A000FFF7FEBFFFF7FEBFFFF7FEBFFFF7FEBF7E
:1006B000FFF7FEBFFFF7FEBFFFF7FEBFFFF7FEBF6E
:1006C000FFF7FEBFFFF7FEBFFFF7FEBFFFF7FEBF5E
:1006D000FFF7FEBFFFF7FEBFFFF7FEBFFFF7FEBF4E
:1006E000FFF7FEBFFFF7FEBFFFF7FEBFFFF7FEBF3E
:1006F000FFF7FEBFFFF7FEBFFFF7FEBFFFF7FEBF2E
:040000050800057971
:00000001FF
