:020000040800F2
:10000000902000204D2A0008A3100008A510000829
:10001000A7100008A9100008AB100008000000009D
:10002000000000000000000000000000AD1000080B
:10003000AF10000800000000B1100008B310000865
:100040005D2A0008612A0008652A0008692A00085C
:100050006D2A0008712A0008752A0008792A00080C
:100060007D2A0008812A0008852A0008892A0008BC
:100070008D2A0008912A0008952A0008992A00086C
:100080009D2A0008A12A0008A52A0008A92A00081C
:10009000AD2A0008B12A0008B52A0008B92A0008CC
:1000A000BD2A0008C12A0008C52A0008C92A00087C
:1000B000CD2A0008D12A0008D52A0008D92A00082C
:1000C000DD2A0008E12A0008E52A0008E92A0008DC
:1000D000ED2A0008F12A000843270008F52A000845
:1000E000F92A0008FD2A0008012B0008052B00084A
:1000F000092B00080D2B0008112B0008152B0008F8
:10010000192B00081D2B0008212B0008252B0008A7
:10011000292B00082D2B0008312B0008352B000857
:10012000392B00083D2B0008412B0008452B000807
:10013000492B00084D2B0008512B0008552B0008B7
:10014000592B00085D2B0008612B0008652B000867
:10015000692B00086D2B0008712B0008752B000817
:10016000792B00087D2B0008812B0008852B0008C7
:10017000892B00088D2B0008912B0008952B000877
:10018000992B00089D2B000840F0200070472DE9B6
:10019000F14FB0B0924604910DF142013A9A2B9181
:1001A00099464A7000200AE01AF8011B0498309A18
:1001B00090470028049000F042860D98401C0D9056
:1001C0009AF8000050B12528EED1002100220791B5
:1001D000089209910A920B910C9204E00D9800F09C
:1001E00030BE41F001011AF8010F2028F9D0232870
:1001F0000CD02B2804D02D2805D0302809D00BE0B6
:1002000041F00201EFE741F00401ECE741F00801A1
:10021000E9E741F01001E6E72A280FD1D9F80020DC
:1002200052F8040BC9F8002000280F9003D5404273
:100230000F9041F004010AF1010A14E00F92DFF877
:10024000083C0AE00F98984205DA00EB800402EBC4
:100250004402303A0F920AF1010A9AF80020A2F102
:1002600030000A28EED39AF800002E2803D04FF071
:10027000FF320E9229E01AF8010F2A2809D1D9F885
:10028000000050F8042BC9F800000E920AF1010A90
:100290001BE02D280CBF0AF1010A002000220E925B
:1002A000DFF8A44B0BE040B90E9AA24205DA02EB4C
:1002B000820503EB4503303B0E930AF1010A9AF8DD
:1002C0000030A3F130020A2AEDD3ADF840100FF64A
:1002D0007C309AF8001000F0D9FE08B11AF8010B32
:1002E0008DF842009DF84200682805D19AF8000078
:1002F00068280CD1622106E06C2804BF9AF800003F
:100300006C2804D171218DF842100AF1010A12A85B
:1003100006901AF801BBBBF125012CD01C3900F066
:100320009481091F022940F29081133900F0B984A9
:10033000093900F08A81891E00F04E85491E00F0BF
:10034000FB84491E022940F28081091F00F0F484D9
:10035000491F00F0EF80491E00F0A384491E00F001
:10036000D780C91E0CD0891E00F09B84C91E00F0E6
:10037000988400F03CBD01230793252100F034BD93
:10038000D9F8000050F8044BC9F80000002C05947F
:1003900040F0AB802B994878002800F0A1804FF006
:1003A000FF340FF6B02000F085FE201A40F047859C
:1003B00000F029BD01236A4602A9304600F00EFE76
:1003C000002840F03C856D1EF4D13096079D12AF99
:1003D00075B1309E17F8011B0498B04700280490AF
:1003E00000F02D850D98401C6D1E0D90F2D13096B9
:1003F0000A9D3021002D8DF800100CDD309E012368
:100400006A4602A9304600F0E9FD002840F0178551
:100410006D1EF4D13096059F089D75B1309E17F87A
:10042000011B0498B0470028049000F008850D983F
:10043000401C6D1E0D90F2D130960B9D3021002D89
:100440008DF800100CDD309E01236A4602A930466B
:1004500000F0C4FD002840F0F2846D1EF4D1309607
:1004600005980899099D471875B1309E17F8011B2A
:100470000498B0470028049000F0E1840D98401CD7
:100480006D1E0D90F2D130960C9D3021002D8DF80F
:1004900000100CDD309E01236A4602A9304600F0B0
:1004A0009DFD002840F0CB846D1EF4D130969DF860
:1004B000400041077FF584AE2020002C8DF800001D
:1004C0007FF77EAE309D01236A4602A9284600F0E0
:1004D00085FD002840F0B384641EF4D130956FE6AA
:1004E0000FF65830059000F08EBC0E9D002D04D5FF
:1004F000204600F0FFFD044607E02A46204600F0B3
:1005000015FE002814BF041B2C46089400F07BBC89
:10051000D9F8001051F8040BC9F8001020F00004BD
:10052000002121F0FF35CDE9024512AB059378217A
:1005300000F04EBC2B99487820B14FF0FF340FF6F5
:10054000CC2030E79DF84200622860D0682817D0A0
:100550006A283FD06C2806D0712847D074282CD048
:100560007A281DD062E0D9F8001051F8040BC9F8C0
:100570000010002866D14FF0FF340FF6A82012E7D4
:10058000D9F8001051F8040BC9F8001020B94FF049
:10059000FF340FF6902006E70D99018000F033BC80
:1005A000D9F8001051F8040BC9F80010002849D1FF
:1005B0004FF0FF340FF66C20F5E6D9F8001051F833
:1005C000040BC9F8001000283CD14FF0FF340FF69F
:1005D0005420E8E6D9F8001051F8040BC9F80010CF
:1005E00080B94FF0FF340FF63C20DCE6D9F800105C
:1005F00051F8040BC9F8001020B94FF0FF340FF682
:100600002420D0E60D9AD317C0E90023FBE3D9F8E4
:10061000001051F8040BC9F8001020B94FF0FF3456
:100620000FF60020BFE60D990170ECE3D9F8001039
:1006300051F8040BC9F8001020B94FF0FF340FF641
:10064000E410B0E60D990160DDE39DF842004C280E
:1006500007BFD9F80010CA1DD9F80000C21D22F04A
:100660000702C9F80020D2E900010832C9F80020C9
:10067000CDE90201C80F02D007982D210AE0BDF88C
:100680004000810702D507982B2103E0C00705D55C
:100690000798202112AA1154401C079012A807990C
:1006A0004BF0200300EB010CDDE90201CDE92C0148
:1006B000612BCDF814C021AC0BD00E98002848BF98
:1006C000062105D404BF4BF02000672801D1012189
:1006D0000E91DDE902014F0047EAD0777E15FF1742
:1006E0004FF0FF32974208BF964210D1090341EA0A
:1006F00010510003002908BF002808D0ABF16105A4
:1007000003211A2D089118D30FF6381110E0DDE9F6
:1007100002014A00521512F1010F11D108030FD145
:10072000ABF1610503211A2D08911FD30FF61C119F
:100730000322604600F026FD65E30FF60411F7E79B
:10074000DDE902016A4600F071FDCDE902014BF0DE
:100750002000612811D1059830210170821C05927A
:10076000BBF1610F0CBF7821582102E00FF6D801D0
:10077000DEE741700798801C0790DDE9020120F058
:10078000000231F0004308BF002A02D100260025F4
:1007900042E14BF02008B8F1610F40F092800E98D2
:1007A000002847BF21210191401C0190019FDDE9F4
:1007B0002C017F1C00220023DDE9024500F06EFDC4
:1007C00038BF85F0004500998DF88420091F002F5F
:1007D00000910DF1850632DD2046294600220023D6
:1007E00000F076FD2BD21C2200F08CFD04460D4655
:1007F00000F026FEFF1F002F804609DD00F03CFEC2
:1008000002460B462046294600F0FEFE04460D46F1
:10081000F01D0721B8F1000F0CDD491E5EBF08F086
:100820000F0200F8012D4FEA2818F3D502E000224C
:1008300000F8012D491EFAD5C61D002FCCDC0DF1A4
:100840008500361A01980DF185048642D8BF3046DE
:1008500000282FD4B04206DA0DF185010A5C082A7F
:10086000A8BF0F2100DA0021024621AB134400E0AB
:10087000401E13F80159521E8D42F9D00F2904D1A0
:100880000DF185018B5C5B1C8B54002A04D500990B
:10089000091D21AC401C0091411E0BD46218137835
:1008A0003033DDB23A2DA4BF5B443A3B491E02F817
:1008B0000139F4D50E99002940F1AC80421E0E9208
:1008C000A8E00099DFF8042747F29750414391FBD5
:1008D000F2F20092DDE92C45C2F10702002A25F070
:1008E000004504DD2046294600F04CFB0BE0524257
:1008F0000020DFF8DC1600F045FB02460B462046E0
:10090000294600F0F3FE04460D46B8F1660F06BF17
:10091000009F0A3706270E983F18142FC8BF1427C8
:1009200030208DF884000DF18506002F34DD20463F
:10093000294600F0FFFF01460A4606F1080304209D
:100940000A26B2FBF6F606EB860EA2EB4E0230321A
:1009500003F8012C0A22B6FBF2F202EB820EA6EBA0
:100960004E063036401E03F8026DE9D1083F002FD5
:1009700003F10806D9DD084600F0EEFF02460B46FB
:100980002046294600F040FE0022DFF8483600F0FD
:10099000F1FF04460D46CAE70DF18500361A0DF148
:1009A000850404E00098401E761E0090641C2078A8
:1009B0003028F7D0B8F1660F02D10099491C04E045
:1009C000B8F1650F0CBF012100210E98081886426E
:1009D000B8BF701E00281DD4B04204DA215C34294F
:1009E000C8BF392100DC30210246631E9D1800E09B
:1009F000401E15F80169521E8E42F9D0392902D1E4
:100A0000A15C491CA154002A04D50099491C1C462C
:100A1000401C00910646009D01F082F8406A07786C
:100A2000DDF8388030B2002802DC01260FF22064A5
:100A30004BF02000662808BF6D1C16D0672846D1F1
:100A400028B210F1040F48DB404546DA9DF840001B
:100A50006D1C010703D430B24045D8BF804628B290
:100A6000B8EB000848BF4FF000080FFA85FBBBF158
:100A7000000F00F3B5800898411C089130220599B9
:100A80000A54B8F1000F03DC9DF84000010704D5BB
:100A90000898411C089105990F5418EB0B0FB8BF2B
:100AA000C8F100052DB26842A84432B20B909045BF
:100AB000B8BF4646059B089836B20996324621468D
:100AC000184400F05FFBA8EB06000C90D2E0BBF1ED
:100AD000610F17D14FF0700B19E030B2404504DAC6
:100AE0009DF840100A0758BF8046B8F1010848BF7A
:100AF0004FF00008BBF1670F14BF4FF0450B4FF0EC
:100B0000650B04E0BBF1410F08BF4FF0500B089894
:100B1000411C0891B8F1000F059914F8012B0A54F3
:100B200003DC9DF8400001071AD50898411C089184
:100B3000B8F1000F05990F5412DD761E30B28045D2
:100B4000B8BF46460598089B32B22146184400F0CB
:100B500019FB089936B271180891A8EB06000B90A2
:100B600005980899084429B2002980F800B003D4F8
:100B70002B224270821C04E02D2242700D46821C02
:100B80006D4200212CAB28460AE004460A2094FB63
:100B9000F0F000EB8005A4EB450403F8014B491C81
:100BA00000B20028F1DC012906DC4BF020006528AA
:100BB00004BF302002F8010B00292CAB08D13020F3
:100BC00002F8010B06E0491E585C303002F8010BB8
:100BD0000029F8DC059908980844121A099249E09E
:100BE00030B229B288421CDA0598089B32B22146FD
:100BF000184400F0C7FA089936B271180891ABEBA7
:100C00000600B8F1000F0B9003DC9DF840000207CE
:100C100004D5059847540999491C0991CDF83080AD
:100C200028E00598089B2AB22146184400F0AAFA49
:100C30000898761B5844B8F1000F089003DC9DF823
:100C400040100A0703D5411C089105990F5430B292
:100C50008045B8BF46460598089B32B204EB0B01AD
:100C6000184400F08FFA089836B230180890A8EBB4
:100C700006000B909DF8400000F01400102840F092
:100C8000C280079A08990B988A18099982180C98BB
:100C90008A1882180F98824280F2B580821A0A92CE
:100CA000B1E09DF84200622808D068280ED06A287A
:100CB00014D06C281FD0712810D01CE0D9F8001077
:100CC00051F8040BC9F80010C0B21AE0D9F80010AE
:100CD00051F8040BC9F8001080B212E0D9F80000F6
:100CE000C21D22F00702C9F80020D2E90001083233
:100CF000C9F8002006E0D9F8001051F8040BC9F833
:100D000000100021CDE902019DF8400001075AD5ED
:100D1000DDE90223002B08BF002A54D04BF020004D
:100D2000782850D1079812A930220A54401C431C3D
:100D3000079301F800B046E09DF84200622808D011
:100D400068280ED06A2814D06C281FD0712810D0C3
:100D50001CE0D9F8001051F8040BC9F8001040B29B
:100D60001AE0D9F8001051F8040BC9F8001000B2CD
:100D700012E0D9F80000C21D22F00702C9F80020D5
:100D8000D2E900010832C9F8002006E0D9F80010C5
:100D900051F8040BC9F80010C117CDE90201002970
:100DA00002D507982D210AE0BDF84000810702D541
:100DB00007982B2103E0C00705D50798202112AA28
:100DC0001154401C079012A80799014405915946F7
:100DD00002A800F04DF816E001200790D9F80000B5
:100DE00050F8041BC9F800008DF848100BE00121F1
:100DF0002522BBF1000F07918DF8482003D0022275
:100E000007928DF849B00F9A07980A990C9C121A0C
:100E10000898521A0B99121A0998521A121A9DF828
:100E20004000141B41073FF5D1AA2020002C8DF86B
:100E300000007FF7CBAA309E2546FFF7BBBA4FF0E4
:100E4000FF3031B0BDE8F08FCBCCCC0C686A6C744D
:100E50007A4C00007072696E74665F733A2062614A
:100E60006420257320617267756D656E74000000E3
:100E70002DE9FC4707468A463C6950466F2808BF63
:100E8000082505D0FFF780F9782814BF0A2510251A
:100E9000D7E900013C2680468946BAF1640F18BFA5
:100EA000BAF1690F05D1002903D5D8F1000869EB23
:100EB0004909B9F1000F08BFB8F1000F0CD1386B28
:100EC00050B9082D3AD197F83800010736D53022AD
:100ED0003B2684F83B2031E08DF800A0404649468F
:100EE0002A46EB1700F020FE3032D0B2761E3A28A8
:100EF00001960EDAA255404649462A46EB1700F005
:100F000013FE80465FEA010908BFB8F1000F05D162
:100F100008E09DF800001218513AEBE7F868A119B3
:100F20008842DBD3082D09D197F83800010705D591
:100F3000A05D302802D0761E3020A055C6F13C02BC
:100F4000BA61A119F960386B824208DA821A3A62F2
:100F50004FF6EF70398F01403987BDE8F3870028DD
:100F60000ED597F8380000F01400102808D17B6BDC
:100F70007969386A5B1A1B1A9A1A002AC8BF3A6242
:100F8000BDE8F3872DE9D04306460F4614464FF0DF
:100F90000008DFF8449012E0E00707D542464B46D0
:100FA0003046394600F0E6FC06460F4640464946C4
:100FB00042464B4600F0DEFC641080468946002C19
:100FC000EAD130463946BDE8D0830000A086010052
:100FD0000000F03F84D7974100002440F8B5054653
:100FE0000E4617461C4600205CB117F8011BB0687E
:100FF000A847B06030B1F06A401CF0620020641E67
:10100000F3D1F2BD4FF0FF30F2BD00007072696E97
:1010100074665F733A20256E20646973616C6C6F2F
:10102000776564007072696E74663A20626164204C
:10103000256E20617267756D656E7400000000009A
:101040006E616E004E414E00696E6600494E46006C
:10105000300030B5016884684218416802EB5103E2
:10106000C90703D54C4401E0491C08D19A4218BF76
:1010700012F9011B01D10C3030BD12F8015B0029BF
:1010800004F8015BF0D4491EF7D5EFE7C9B2027846
:101090008A421AB11CBF10F8012FF9E718BF0020CF
:1010A00070477047FEE7FEE7FEE7FEE770477047D0
:1010B0007047704780B500B906A005490B681BB1A1
:1010C00022220021984701E000F046FE222002BDC6
:1010D00084000020636F6E73747261696E7420689F
:1010E000616E646C65723A20626164206D65737331
:1010F0006167650000F10103810704D010F8011B4E
:10110000820781B1FAD10268A2F10131914311F055
:10111000803104BF50F8042FF6E709BAB1FA81F123
:1011200000EBD100401CC01A70472E00C9B28307E3
:1011300006D0521E22D310F8013B9942F7D11FE08E
:10114000083A13D302F1040241EA012141EA0141C4
:1011500050F8043B121F21BF4B40A3F1013C2CEA85
:10116000030C1CF0803FF3D0C9B2001F083210F806
:10117000013B521E28BF91EA030FF8D818BF012087
:10118000401E704762B38B0708D0521E11F8013B16
:1011900000F8013B00F024808B07F6D1830740F074
:1011A000208000BF103A07D330B4B1E83810103AAD
:1011B000A0E83810F9D230BC530724BFB1E80810BA
:1011C000A0E8081044BF51F8043B40F8043BD207A4
:1011D00024BF31F8022B20F8022B44BF0B78037098
:1011E0007047121F17D35B0009D151F8043B20F858
:1011F000023B1B0C121F20F8023BF6D20BE051F809
:10120000043B00F8013B1B0A20F8023B1B0C121F99
:1012100000F8013BF3D238BF121D521E24BF11F853
:10122000013B00F8013BF8D87047000010B51446A8
:1012300000F002F8226010BDC1F30A5343B14A0026
:1012400012F5001F28D2A3F2FE32A1EB0251704723
:1012500050EA410C20D001F0004C31EA0C01B1FA07
:1012600081F204BFB0FA80F3D2180B3AB2F1200336
:101270002CBF00FA03F1914041EA0C013EBFC2F1DC
:10128000200C20FA0CF319439040524240F2FD33F7
:10129000D21A01EB035170470022704741EA030C58
:1012A00050EA4C0C52EA0C0C4FF4001C09D307D046
:1012B0001CEB410F9CBF1CEB430F8B4208BF8242CB
:1012C00070471CEB430FFBD8994208BF9042704710
:1012D00041EA030C50EA4C0C52EA0C0C4FF4001C8F
:1012E00009D307D01CEB410F9CBF1CEB430F994265
:1012F00008BF904270471CEB410FFBD88B4208BFE0
:1013000082427047124254D440F2FF7C1CEA1153CF
:101310000FD0634531D09B1863453CBF01EB0251B0
:10132000704701F0004141EA0C510020AFF300800A
:10133000704750EA410320D001F0004C91EA0C01C3
:101340001CD0B1FA81F30B3B9A420DD9D21A9940C5
:1013500051EA0C01C3F1200C20FA0CFC61449840C6
:10136000531C40F2FF7CD7E7914041EA0C01C2F1E7
:10137000200C20FA0CF3194390407047B0FA80F328
:101380001533202BE0D3202AEED3203A203B9A427B
:1013900009D9D21A00FA03F141EA0C010020531CCA
:1013A00040F2FF7CB8E700FA02F141EA0C010020AC
:1013B0007047524240F2FF7C1CEA11530DD0634546
:1013C000DBD0B2EB030C3CBFA1EB025170470CF138
:1013D000010221EA035141F4801150EA410CCCD0C2
:1013E00001F0004C352A27DC30B481EA0C01B2F15F
:1013F000200309DAC2F12003044601FA03F5D040C4
:101400002843D1409C400CE0C3F12002450020FA63
:1014100003F418BF44F0010421FA03F091400C4397
:10142000002174F1004550F1000051EB0C01244201
:1014300030BC7FF47BAF70476146002076E7000048
:10144000C1F30A5340F21E42D31A0CDDCA0283F3E1
:10145000070342EA505242F00042DA4002EBE172E6
:1014600082EAE17070476FEAE17203F2E13008B19D
:1014700082F000407047000010F0004160B148BFAA
:101480004042B0FA80F29040D21CC2F5846241EA38
:10149000025202EBD021400570470000841A71EB24
:1014A000030604D26E40001BB141121973414FF480
:1014B000001C1CEB410F34BF7CEB430683E00C0D9A
:1014C000A4EB1356362E00F37C80012E45EAC3238D
:1014D00041DC43EA525312BFD20292025B08240558
:1014E00045EAC12141EA5051D2EBC020994125D4AF
:1014F00007D1B0FA80F610FA06F162D0002020364B
:1015000008E0B1FA81F6B140C6F1200220FA02F2F9
:101510001143B0404FEAF474B4EB465434F0010682
:101520004FEA74040AD8D6F50016760D04F000448C
:10153000F04061FA06F25040F1404840C00A40EAEB
:10154000415021F0004128BF5FEA500550F10000F2
:1015500044EBD12135E0DB0A45EAC121C90AB6F1E5
:1015600020050EDD42EA0242120CC5F1200603FA04
:1015700006F6EB4042EA06056D42984161F1000132
:101580000DE062FA06F5F240554063FA06FC82EA85
:101590000C02F3405A406D42904161EB030111F49B
:1015A000801F05D1641E620502D06D004041494193
:1015B00021F48011430875F1004350F1000041EB24
:1015C000045170BC70471CEB410F15D223F000434F
:1015D00052EA43060BD04FEA4C0CBCEB410F04D847
:1015E0000C0D661E342EB7DDEBE7801A994150EAE8
:1015F000410608BF0021E4E708BF1CEB430F28BFEA
:101600006FF00001DDE7000070B491EA030F4FF0C6
:1016100000457FF543AF6B40841A71EB030603D29C
:10162000001BB141121973414FF4001C1CEB410F18
:1016300034BF7CEB430442E00C0DA4EB1356352E73
:101640004FDC45EAC323DB0A45EAC121C912B6F1E2
:1016500020050DDD63FA05F6EB4086EA030512422C
:1016600018BF45F00105C01851F100010CD213E07C
:1016700062FA06F5F2405540F3415A40B340F34058
:101680005A408018594107D349085FEA30005FEAA1
:10169000350528BF45F0010501F58011420875F1B7
:1016A000004250F1000041EB04514E0016F5001FBE
:1016B00070BC38BF70470020090D090570471CEB4E
:1016C000410F10D252EA43060BD0BCEB410F05D8B4
:1016D0000C0DAB43661E342EB6DD02E0AB43801822
:1016E000594170BC704770BC70470000F0B540F2C3
:1016F000FF7581EA030C0CF0004C15EA11541DBF74
:1017000015EA1357AC42AF42E5E0BC41C1F3130107
:10171000C3F31303801A994143F4801304D2641E67
:101720000018494180185941C90241EA5051B1FBA2
:10173000F3F603FB1611A2FB0675D7EBC020A941F7
:1017400002D2761E80185941C90241EA5051B1FBBC
:10175000F3FE03FB1E11A2FB0E75D7EBC020A941BF
:1017600003D2AEF1010E80185941890241EA90512D
:10177000760546EA8E2EB1FBF3F603FB1611A2FBAB
:101780000675D7EB8020A94102D2761E80185941F8
:10179000C90241EA50514EEA060EB1FBF3F603FBD3
:1017A0001611A2FB0675D7EBC020A94102D2761E06
:1017B00080185941C90241EA5051B1FBF3F703FBCC
:1017C0001711A2FB0735D3EBC020A94167F1000731
:1017D0000CBF004247F0010766F3D5274FEA1E31E0
:1017E000B80814F5806412DDBD0775F1004250EBB6
:1017F0000E5051EB045111F5801F5CBF41EA0C0102
:10180000F0BD4CF07F6141F0E0410020F0BDBD072C
:101810006D0840EA0E5041F48011D4F10104B4F196
:1018200020060ADAC4F120060200E04001FA06F3BD
:10183000E1401843B24015430EE0342C13DCC6F1EE
:10184000200445EA40056D0820FA06F2154321FA06
:1018500006F0A1400D43002175F1004250F1000057
:1018600051EB0C01F0BD00205FEA0C01F0BDCFB9D7
:1018700092185B41B3FA83F704BFB2FA82F6BF193C
:101880000B3FB7F120062FBF02FA06F3BB40C7F1AA
:10189000200622FA06F638BF3343BA401CB1E419D9
:1018A000641E33E77F4231F00041B1FA81F404BF96
:1018B000B0FA80F6A4190B3CB4F120062FBF00FA51
:1018C00006F1A140C4F1200620FA06F638BF3143E4
:1018D000A0403C1B1AE7AC421ABF05EA1357AF42BF
:1018E00012E050EA41061CBF52EA4306BFE750EA45
:1018F0004107304661461CBF41EA0551F0BD52EA3E
:10190000430C08BFC143F0BD00204FF4001616EB96
:10191000410F98BF16EB430F08BF16EB410F24BFD2
:10192000C14305E016EB430F0CBF61464CEA05517D
:10193000F0BD0000400D40F21E4C40EAC120BCEB5F
:10194000115C40F0004003D48CF30701C84070479D
:101950006FEAE1707047000050B1B0FA80F1884042
:10196000C91CC1F58461090501EBD0214005704710
:101970000146704730B540F2FF7C1CEA11541DBF90
:101980001CEA1355644565453FE0641981EA030C80
:101990006FF35F530CF0004C43F48013C90241F025
:1019A000004141EA505EC5021100A5FB0202002879
:1019B0004FF00000EEFB01204FF00001E3FB05219A
:1019C00018BF42F00102401800214941E3FB0E011B
:1019D000A4F580640D0302D292184041494154F1AC
:1019E000010470DD450872F1004250F1000051EB36
:1019F0000451A1F5801102D441EA0C0130BD40F23E
:101A0000FF7E4CEA0E51002030BD0CEA13556445B0
:101A100018BF654581EA030C0CF0004C41D050EA38
:101A2000410E1CBF52EA430E02E06146002030BD69
:101A300024422C441BD15FEA050EF6D0090302BFF5
:101A400001460020AEF1140EB1FA81F5AEEB0504AB
:101A500001FA05FE0C35C5F1200100FA05F5C84074
:101A60004EEA000E6FF35F5343F480139CE733F0AC
:101A70000043B3FA83F504BFB2FA82FE75440B3D0E
:101A8000641BB5F1200E2FBF02FA0EF3AB40C5F177
:101A9000200E22FA0EFE38BF43EA0E03AA40641C51
:101AA0007CE750EA410E14BF52EA430E6FF000018A
:101AB0004FF4001515EB430F8EBF194615EB410F80
:101AC0009DE7B4D830BDD4F10104B4F120050FDA9C
:101AD000C4F12005520828BF42F0010210FA05FEA9
:101AE00001FA05F57244E2BFE0402843E1400FE00F
:101AF000352C9ADCC5F1200452EA400220FA05F2A6
:101B000018BF42F0010231FA05F0A1400A4300215A
:101B100072F1004250F1000051EB0C0130BD0000A9
:101B20000048704710000020BBBBE1B1B2F5803F18
:101B300080F07E80022A1ED98C46B1FBF2F102FBB6
:101B400011C31B0443EA1043B3FBF2FC02FB1C333A
:101B500080B240EA0343B3FBF2F002FB103240EAEA
:101B60000C4000237047022A05D98446B0FBF2F0EE
:101B700002FB10C270474AB105D100F001024908CA
:101B80005FEA3000704700220023704700F0E8B899
:101B90000B000200002100207047904271EB030C03
:101BA000F6D3B3F5803F2FD2F0B5B3FA83F7B1FA8D
:101BB00081F4A7F10F0E3D1B5340CEF1200602FA2F
:101BC0000EF2F3415340B5F10F0746D80F3C2C44B9
:101BD0004140C4F12006A040F1414140B1FBF3F681
:101BE00003FB1611A2FB0645001BA94102D2761E7B
:101BF0008018594180EA010221FA0EF362FA0EF2CE
:101C000000215A403046F0BD30B4B1FBF3FC03FB79
:101C10001C11A2FB0C45001BA94103D2ACF1010C25
:101C20008018594130BC02460B466046002170477F
:101C3000B2F1807F65D3F0B5B2FA82F7B1FA81F4E0
:101C4000C7F10F063D1B22FA06F307F1110EF24110
:101C500020355A40B5F10F07B8D94140C4F12006EC
:101C6000A040F1414140B1FBF3FC03FB1C11A2FB7E
:101C70000C45001BA94103D2BCF1010C801859414D
:101C80000F2F12D30F3FC90341EA5041B1FBF3F6C6
:101C900003FB1611A2FB0645D4EBC030A94102D2CA
:101CA000761E8018594146EACC3C07B34140C7F143
:101CB0002006B840F1414140B1FBF3F603FB161199
:101CC000A2FB0645001BA94102D2761E801859418D
:101CD00080EA010221FA0EF3C7F1200462FA0EF243
:101CE0000CFA07F05A402CFA04F13043F0BD80EAB8
:101CF000010221FA0EF3002162FA0EF260465A4008
:101D0000F0BD8C46B1FBF2F102FB11C31B0243EAAA
:101D10001063B3FBF2FC02FB1C331B024CEA0020F5
:101D200043EA1063B3FBF2FC02FB1C331B024CEAD8
:101D3000002043EA1063B3FBF2FC02FB1C331B02DE
:101D40004CEA002043EA1063B3FBF2FC02FB1C32B6
:101D50004CEA002000237047012000F003B8000087
:101D60007047000080B5AFF30080024A11001820D0
:101D7000ABBEFBE72600020001684908490001608C
:101D80000021016000214160002181600021C160CB
:101D90000021016121214161DFF88811884204D1CD
:101DA0003D20DFF88411086085E0DFF8801188426B
:101DB00005D14FF47460DFF8701108607BE0DFF844
:101DC0007011884205D15FF47410DFF85C1108606F
:101DD00071E0DFF86011884205D15FF07460DFF8D0
:101DE0004811086067E0DFF85011884205D1DFF83C
:101DF0004C01DFF84C1108605DE0DFF848118842C3
:101E000005D1DFF84401DFF83811086053E0DFF84E
:101E10003C11884205D1DFF83801DFF82411086051
:101E200049E0DFF83011884205D15FF03D50DFF81E
:101E3000101108603FE0DFF82011884204D13D20F6
:101E4000DFF81811086036E0DFF81411884205D178
:101E50004FF47460DFF8041108602CE0DFF804111F
:101E6000884204D15FF474103C49086023E03E4985
:101E7000884204D15FF07460384908601BE03B4938
:101E8000884203D12D483A49086014E03949884214
:101E900003D12D48364908600DE03749884203D107
:101EA0002B483349086006E03449884203D15FF08B
:101EB0003D502F490860704700220368304A1340A4
:101EC0000A681343CA6813434A6913438A69134370
:101ED000CA6913430A6A13434A6A13438A6A13435B
:101EE0004A6B13438A6B134303604369DB08DB00CF
:101EF000CA6A13430A6B134343610A6942604A6822
:101F000082608968C1607047C9B2002904D0016845
:101F100051F00101016003E00168490849000160D6
:101F200070470000106002400860024028600240D4
:101F30004060024058600240706002403D00002056
:101F40000C60024088600240400F0020A060024008
:101F500000003D20B8600240106402400864024066
:101F600028640240406402405864024070640240A9
:101F70000C64024088640240A0640240B8640240DD
:101F80003F801CF038B584B005000C000020002014
:101F900000200020A0890028298A31F44051E088DF
:101FA00001432982A98928480140A088014320894A
:101FB000014360890143A981A98A31F44071A08954
:101FC0000143A982684600F0C1F81D48854202D04D
:101FD0001C48854201D1039900E00299A8890004B8
:101FE00006D51920414320684000B1FBF0F205E01E
:101FF0001920414320688000B1FBF0F26420B2FB5D
:10200000F0F109010B001B097FF0630000FB0322C4
:10201000A889000408D5D20032326420B2FBF0F067
:1020200010F00700014307E0120132326420B2FBD6
:10203000F0F010F00F000143298105B030BD000021
:102040000010014000140140F3E9FFFFC9B200296C
:1020500004D0818951F40051818104E082894DF6D8
:10206000FF710A4082817047C905C90D81807047A0
:102070008088C005C00D704710B4002300230023E2
:1020800000230B0040F66A149BB2A3420B00DBB2A4
:102090005B09DBB289B211F01F01012414FA01F1CE
:1020A000012B01D10C3004E0022B01D1103000E0F3
:1020B0001430D2B2002A03D002681143016003E059
:1020C000026832EA0101016010BC704700220A0078
:1020D00092B2B2F5007F0088084201D0012000E0F2
:1020E0000020C0B2704710B400220022002200225B
:1020F0000A0040F66A1392B29A420B00DBB25B0907
:10210000DBB20A0092B212F01F02012414FA02F2AA
:10211000012B02D183891A4006E0022B02D1038AE7
:102120001A4001E0838A1A4089B2090A89B214FA76
:1021300001F100880140002A03D0002901D00120CC
:1021400000E00020C0B210BC7047000010B40021B5
:1021500000210021022100210221DFF80021116865
:1021600011F00C01002904D0042906D0082908D058
:102170002BE0DFF8F01001602AE0DFF8EC100160DE
:1021800026E0DFF8DC402168C1F38051236813F0BA
:102190003F03002908D0DFF8D010B1FBF3F321682A
:1021A000C1F388114B4307E0DFF8B810B1FBF3F33C
:1021B0002168C1F388114B432168C1F30141491CD7
:1021C0004900B3FBF1F1016002E0DFF89810016013
:1021D000116811F0F0010909DFF89030595C0468CA
:1021E000CC404460116811F4E051890A595C44689C
:1021F000CC408460116811F46041490B595C42681D
:10220000CA40C26010BC7047C9B2002904D0184946
:102210000A681043086004E015490A6832EA0000C1
:1022200008607047C9B2002904D012490A681043F7
:10223000086004E00F490A6832EA0000086070474D
:10224000C9B2002904D00C490A681043086004E0B0
:1022500009490A6832EA00000860704708380240FD
:10226000043802400024F40000127A00000000202C
:1022700030380240403802404438024010B4002256
:1022800000234468624A14400A7954EA02240A6826
:102290001443446084685F4A14400A691443CA685E
:1022A00014438A6814434A7954EA42048460C26A37
:1022B00032F47002097D491E0B43DBB252EA03522D
:1022C000C26210BC70470021534B1A6853490A4040
:1022D00001680A4341680A4381680A43C0680243AF
:1022E0001A607047C9B2002904D0816851F0010119
:1022F000816003E081684908490081607047F0B45B
:10230000002400240C00E4B20A2C13DBC568072665
:10231000B1F10A04032714FB07F416FA04F4A543E9
:10232000DBB2B1F10A04032614FB06F4A3402B43ED
:10233000C3600EE005690726032411FB04F416FAB6
:1023400004F4A543DBB2032411FB04F4A3402B43A4
:1023500003611300DBB2072B11DA436B1F25541EF8
:10236000052614FB06F415FA04F4A343C9B2521E61
:10237000052412FB04F291401943416327E0130046
:10238000DBB20D2B11DA036B1F25D41F052614FBBE
:1023900006F415FA04F4A343C9B2D21F052412FBB4
:1023A00004F291401943016311E0C36A1F25B2F1A1
:1023B0000D04052614FB06F415FA04F4A343C9B270
:1023C0000D3A052412FB04F291401943C162F0BC9E
:1023D0007047816851F0804181607047C9B200291F
:1023E00004D0816851F48071816003E0816831F428
:1023F000807181607047C9B2002904D0816851F4AE
:102400000071816003E0816831F400718160704780
:10241000FFFEFFFCFDF7FFC004230140E030FCFF9E
:10242000E0B501210120FFF7EFFE0320009003201B
:102430008DF8040000208DF8070069464A4800F036
:10244000A1F807BD18B599B001215FF48000FFF72E
:10245000DBFE01214FF48070FFF7F2FE434C2000B9
:10246000FFF78AFC00200A9041480B9041480C90ED
:1024700000200D9002200E9000200F904FF48060FD
:1024800010904FF4006011904FF4005012904FF4F0
:10249000807013905FF4003014900020159001209C
:1024A000169000201790002018900AA92000FFF72E
:1024B00003FD01212000FFF727FD002000900020F0
:1024C000019000200290002003906846FFF7FBFE79
:1024D0000020049001208DF8140001208DF81500D3
:1024E00000200690002007900020089002208DF820
:1024F0002400214C04A92000FFF7C0FE072301227D
:1025000000212000FFF7FBFE07230222012120000B
:10251000FFF7F5FE01212000FFF76DFF01212000EC
:10252000FFF75CFF01212000FFF7DCFE2000FFF732
:1025300050FF1AB010BD38B5FFF772FFFFF782FFEA
:1025400000F090F80D4800F027F94FF6FF74094DA0
:102550006888A042F9D06A8892B22988084800F0B9
:102560001BF96C80F1E7000000000240106402409B
:102570004C20014048000020002001403C2A000877
:10258000282A0008F0B400220022002200233DE0A7
:10259000012414FA03F20D681540954235D1032544
:1025A00002685E0015FA06F6B243026006680F790B
:1025B0005A0097403E4306600A79012A02D00A7900
:1025C000022A16D182685E0015FA06F6B2438260CE
:1025D00086684F795A0097403E43866042689C4027
:1025E00032EA0404446042688C799C40A4B22243DD
:1025F0004260C4685A00954034EA0505C560C46865
:10260000CD795A0095402C43C4605B1C102BBFD37E
:10261000F0BC704770B400230023D2B28B0013F0DB
:102620001C039A400B009BB2DB1000EB83030C00F1
:10263000A4B2E41000EB8404246A0F258E0016F087
:102640001C06B540AC431C620B009BB2DB1000EBD8
:1026500083031B6A1A4389B2C91000EB810002622E
:1026600070BC704718B587B001210120FFF7CCFD81
:1026700001215FF40030FFF7D5FD02208DF808003E
:1026800000208DF80A0003208DF8090001208DF844
:102690000B000C2001903B4C01A92000FFF772FFBA
:1026A000072202212000FFF7B5FF072203212000A7
:1026B000FFF7B0FF4FF4A06000F082F826208DF8FD
:1026C000000001208DF8010001208DF8020001209A
:1026D0008DF80300684600F078F85FF4E13003906D
:1026E0000020ADF810000020ADF812000020ADF879
:1026F00014000020ADF818000C20ADF81600224C94
:1027000003A92000FFF73EFC012240F225512000E2
:10271000FFF7B2FC01212000FFF798FC08B010BDC4
:1027200038B50400184D80212800FFF7CFFC0028A1
:10273000F8D02000010089B22800FFF795FC2000A6
:1027400032BD10B5104C40F225512000FFF7CBFCF4
:10275000002816D02000FFF78BFC0C490C4A0B68B0
:10276000D0540868105C0D2808D100200B68D054A4
:102770000120084A10700020086002E00868401C30
:10278000086010BD000002400044004080000020AE
:102790004C000020880000200EB4C0B5024603A8FB
:1027A00000210190009101AB0121044878440C30D4
:1027B000FDF7EDFC06BC5DF810FB00BF5502000004
:1027C0001A4908431A4908607047002100210F2365
:1027D000C17800291FD01649096811F4E061D1F5CC
:1027E000E061090AD1F10402DBB20B41417811FA30
:1027F00002F281780B401A4312010E490378CA5441
:102800000121027812F01F0291400B4A007840111A
:1028100042F8201009E00121027812F01F029140D5
:10282000064A0078401142F8201070470000FA056F
:102830000CED00E000E400E000E100E080E100E0F9
:1028400080B53C48016851F4700101603A4908685C
:1028500050F0010008600020384A10600A683848CB
:1028600002400A603748384A1060086830F4802017
:10287000086000203549086000F005F85FF000604E
:102880003349086001BD82B0002001900020009013
:102890002949086850F480300860086810F4003056
:1028A00000900198401C01900098002803D10198E5
:1028B000B0F5A04FF1D10868800302D50120009047
:1028C00001E000200090009801282FD121480268E3
:1028D00052F0805202602048026852F44042026086
:1028E000164802680260026852F400420260026800
:1028F00052F4A0520260194A134B1A600A6852F04F
:1029000080720A600A689201FCD540F20571144A8F
:1029100011600168890889000160016851F00201B5
:102920000160016811F00C010829FAD102B070476A
:102930000000000088ED00E0003802400838024046
:10294000FFFFF6FE10300024043802400C3802402D
:1029500008ED00E040380240007000400854400795
:10296000003C024010B5074979441831064C7C44BC
:10297000163404E00A68081D114488470146A14244
:10298000F8D110BD2C000000380000004EF6885130
:10299000CEF20001086840F470000860BFF34F8F6A
:1029A000BFF36F8F4FF00170E1EE100A7047000027
:1029B000A3E6FFFFEC0100007C0000000000002007
:1029C00000F00DF8002801D0FFF7CCFFAFF3008036
:1029D0000020AFF30080FFF7AEFD00F002F8012009
:1029E000704700F001B8000007463846FFF7BAF913
:1029F000FBE700000548014603B4684680F30988F8
:102A0000AFF30080FFF7C2FFFFF7DAFFA5EDF5FE99
:102A100038B504460D462846FFF782FEA84218BF87
:102A20000024204632BD0000567265733A202564AA
:102A300020436473203A2025640A0D00414443205A
:102A400054657374696E670A0D0000000148804781
:102A50000148004741280008F5290008FFF7FEBF9C
:102A6000FFF7FEBFFFF7FEBFFFF7FEBFFFF7FEBF9A
:102A7000FFF7FEBFFFF7FEBFFFF7FEBFFFF7FEBF8A
:102A8000FFF7FEBFFFF7FEBFFFF7FEBFFFF7FEBF7A
:102A9000FFF7FEBFFFF7FEBFFFF7FEBFFFF7FEBF6A
:102AA000FFF7FEBFFFF7FEBFFFF7FEBFFFF7FEBF5A
:102AB000FFF7FEBFFFF7FEBFFFF7FEBFFFF7FEBF4A
:102AC000FFF7FEBFFFF7FEBFFFF7FEBFFFF7FEBF3A
:102AD000FFF7FEBFFFF7FEBFFFF7FEBFFFF7FEBF2A
:102AE000FFF7FEBFFFF7FEBFFFF7FEBFFFF7FEBF1A
:102AF000FFF7FEBFFFF7FEBFFFF7FEBFFFF7FEBF0A
:102B0000FFF7FEBFFFF7FEBFFFF7FEBFFFF7FEBFF9
:102B1000FFF7FEBFFFF7FEBFFFF7FEBFFFF7FEBFE9
:102B2000FFF7FEBFFFF7FEBFFFF7FEBFFFF7FEBFD9
:102B3000FFF7FEBFFFF7FEBFFFF7FEBFFFF7FEBFC9
:102B4000FFF7FEBFFFF7FEBFFFF7FEBFFFF7FEBFB9
:102B5000FFF7FEBFFFF7FEBFFFF7FEBFFFF7FEBFA9
:102B6000FFF7FEBFFFF7FEBFFFF7FEBFFFF7FEBF99
:102B7000FFF7FEBFFFF7FEBFFFF7FEBFFFF7FEBF89
:102B8000FFF7FEBFFFF7FEBFFFF7FEBFFFF7FEBF79
:102B9000FFF7FEBFFFF7FEBFFFF7FEBFFFF7FEBF69
:102BA000FC00270102030401020304060708092AA6
:102BB0001200082A1200082A1200082A1200082A05
:102BC0001200082A1200082A120008F8FF0B2A1126
:0E2BD00000082A1200082A120008FAFFBD00B1
:04000005080029F5D1
:00000001FF
