:020000040800F2
:1000000060200020A90A00081D0A00081F0A000835
:10001000210A0008230A0008250A00080000000041
:10002000000000000000000000000000270A000897
:10003000290A0008000000002B0A00082D0A000809
:10004000B90A0008BD0A0008C10A0008C50A00086C
:10005000C90A0008CD0A0008D10A0008D50A00081C
:10006000D90A0008DD0A0008E10A0008E50A0008CC
:10007000E90A0008ED0A0008F10A0008F50A00087C
:10008000F90A0008FD0A0008010B0008050B00082A
:10009000090B00080D0B0008110B0008150B0008D8
:1000A000190B0008650200081D0B0008210B000851
:1000B000250B0008290B00082D0B0008310B000848
:1000C000350B0008390B00083D0B0008410B0008F8
:1000D000450B0008490B0008210900084D0B0008DA
:1000E000510B0008550B0008590B00085D0B000868
:1000F000610B0008650B0008690B00086D0B000818
:10010000710B0008750B0008790B00087D0B0008C7
:10011000810B0008850B0008890B00088D0B000877
:10012000910B0008950B0008990B00089D0B000827
:10013000A10B0008A50B0008A90B0008AD0B0008D7
:10014000B10B0008B50B0008B90B0008BD0B000887
:10015000C10B0008C50B0008C90B0008CD0B000837
:10016000D10B0008D50B0008D90B0008DD0B0008E7
:10017000E10B0008E50B0008E90B0008ED0B000897
:10018000F10B0008F50B000881B00021009144F24A
:10019000A0114843009002E00098401E0090009893
:1001A0000028F9D101B070472DE9F04104000A2080
:1001B00094FBF0F50A2094FBF0F100FB11440026BB
:1001C0001DE0934FDFF84C822800C0B218F80010F1
:1001D00051F4306189B2380000F074F90120FFF762
:1001E000D3FF2000C0B218F8001051F4E06189B2CA
:1001F000380000F067F90120FFF7C6FF761C052ED6
:10020000DFDBBDE8F0812DE9F04104000A2094FB1A
:10021000F0F50A2094FBF0F100FB114400261DE0EC
:100220007B4FDFF8F0812800C0B218F8001051F4BD
:10023000606189B2380000F045F90120FFF7A4FFA2
:100240002000C0B218F8001051F4506189B2380093
:1002500000F038F90120FFF797FF761C052EDFDB51
:10026000BDE8F08110B56C4C0221200000F01AFAB4
:10027000002815D00221200000F026FA6748016806
:10028000491C016001681C290ADB002101606448E7
:100290000168491C01600168642901DB00210160DB
:1002A0000121200000F0FEF9002815D001212000D6
:1002B00000F00AFA5B480168491C016001683829AE
:1002C0000ADB0021016058480168491C016001688F
:1002D000642901DB0021016010BD18B58BB001213C
:1002E000062000F0F5F901215FF4003000F0FEF97E
:1002F00001208DF8040000208DF8060003208DF801
:10030000050000208DF8070040F6FF700090694658
:100310003F4800F08DF84FF48070009002208DF877
:10032000040003208DF8050000208DF80600012050
:100330008DF807003D4C6946200000F079F8032253
:100340000821200000F0C1F84FF400700090012057
:100350008DF8040000208DF807006946200000F0A9
:1003600067F84FF40071200000F0AAF84FF4A06085
:1003700000F0CEF919208DF8080001208DF8090051
:1003800001208DF80A0001208DF80B0002A800F072
:10039000C4F9A720ADF80C0044F2235004900020CB
:1003A000ADF814000020ADF80E001B4C03A920008E
:1003B00000F0C8F86020ADF818000120ADF81A0070
:1003C00041F6A83008900020ADF8240006A92000CE
:1003D00000F009F90321200000F076F90122032141
:1003E000200000F053F90821200000F047F9012116
:1003F000200000F0DCF80121200000F0E6F80848B9
:100400000068FFF700FF08480068FFF7CDFEF6E739
:10041000000802400000002000440140500000207D
:1004200054000020480000204C000020000402403E
:10043000F0B400220022002200233DE0012414FA3F
:1004400003F20D681540954235D1032502685E0020
:1004500015FA06F6B243026006680F795A00974013
:100460003E4306600A79012A02D00A79022A16D18F
:1004700082685E0015FA06F6B243826086684F799C
:100480005A0097403E43866042689C4032EA04042A
:10049000446042688C799C40A4B222434260C468A4
:1004A0005A00954034EA0505C560C468CD795A0004
:1004B00095402C43C4605B1C102BBFD3F0BC70472D
:1004C0000183704789B24161704770B400230023F3
:1004D000D2B28B0013F01C039A400B009BB2DB10CE
:1004E00000EB83030C00A4B2E41000EB8404246A44
:1004F0000F258E0016F01C06B540AC431C620B00A5
:100500009BB2DB1000EB83031B6A1A4389B2C9104C
:1005100000EB8100026270BC70470EE00268436825
:10052000024408305FEAC37C44BF4B445B1E52F870
:1005300004CB43F804CB091FF9D150F8041B002960
:10054000ECD1704710B400220488454B98420ED07D
:10055000494A90420BD0B0F1804F08D0414A9042B6
:1005600005D0414A904202D0404A904204D14FF611
:100570008F7214404A8814433D4A904207D03D4A46
:10058000904204D04FF6FF4214400A89144304807D
:100590004A68C2620A880285984202D0364A90426E
:1005A00001D1897A01860121818210BC7047C9B2CC
:1005B000002904D0018851F08001018004E0028804
:1005C0004FF67F710A4002807047C9B2002904D0FB
:1005D000018851F00101018004E002884FF6FE71AC
:1005E0000A400280704730B4002200220022038CAF
:1005F0004FF6FE7213400384058C8388048B4FF6FC
:100600008F7214404FF6FC7214400A8814434FF660
:10061000FD7215408A8915434A881543104A904255
:1006200002D0154A904213D14FF6F7721540CA898D
:1006300015434FF6FB7215408A8815434FF6FF624B
:1006400013404FF6FF5213400A8A13434A8A13435A
:100650008380048389684163058430BC704700004F
:10066000000001400004004000080040000C004071
:100670000010004000140040000401400022038BE1
:100680004FF6F7721340194301837047D2B2002A24
:1006900003D082891143818103E0828932EA01011A
:1006A00081817047002200220022028A0A4080894C
:1006B000014092B2002A04D089B2002901D0012061
:1006C00000E00020C0B2704789B2C9430182704780
:1006D000C9B2002904D00C490A681043086004E03C
:1006E00009490A6832EA000008607047C9B2002967
:1006F00004D006490A681043086004E003490A6808
:1007000032EA000008607047303802404438024046
:100710001A4908431A4908607047002100210F2335
:10072000C17800291FD01649096811F4E061D1F59C
:10073000E061090AD1F10402DBB20B41417811FA00
:1007400002F281780B401A4312010E490378CA5411
:100750000121027812F01F0291400B4A00784011EB
:1007600042F8201009E00121027812F01F029140A6
:10077000064A0078401142F8201070470000FA0540
:100780000CED00E000E400E000E100E080E100E0CA
:1007900080B53C48016851F4700101603A4908682D
:1007A00050F0010008600020384A10600A6838489C
:1007B00002400A603748384A1060086830F48020E8
:1007C000086000203549086000F005F85FF000601F
:1007D0003349086001BD82B00020019000200090E4
:1007E0002949086850F480300860086810F4003027
:1007F00000900198401C01900098002803D10198B6
:10080000B0F5A04FF1D10868800302D50120009017
:1008100001E000200090009801282FD121480268B3
:1008200052F0805202602048026852F44042026056
:10083000164802680260026852F4004202600268D0
:1008400052F4A0520260194A134B1A600A6852F01F
:1008500080720A600A689201FCD540F20571144A60
:1008600011600168890889000160016851F0020186
:100870000160016811F00C010829FAD102B070473B
:100880000000000088ED00E0003802400838024017
:10089000FFFFF6FE10300024043802400C380240FE
:1008A00008ED00E040380240007000400854400766
:1008B000003C02408088C005C00D704710B4002283
:1008C0000022002200220A0040F66A1392B29A42E5
:1008D0000B00DBB25B09DBB20A0092B212F01F021E
:1008E000012414FA02F2012B02D183891A4006E096
:1008F000022B02D1038A1A4001E0838A1A4089B28E
:10090000090A89B214FA01F100880140002A03D0D3
:10091000002901D0012000E00020C0B210BC7047C7
:1009200010B5104C40F225512000FFF7C7FF0028FA
:1009300016D02000FFF7BEFF0B490C4A0B68D054BD
:100940000868105C0D2808D100200B68D0540120E5
:10095000074A10700020086002E00868401C086028
:1009600010BD00000044004058000020140000208A
:100970005C00002030B4002512E050F8042BD307AF
:1009800044BF4A44521E091F042942F8045BFAD2AC
:1009900013468C0744BF15809B1CC90748BF1D70B8
:1009A00050F8041B0029E8D130BC704710B5074946
:1009B00079441831064C7C44163404E00A68081D5A
:1009C000114488470146A142F8D110BD2C00000017
:1009D0004C0000004EF68851CEF20001086840F449
:1009E00070000860BFF34F8FBFF36F8F4FF001703F
:1009F000E1EE100A704700007DFFFFFF4C00000091
:100A0000140000200000000013FBFFFF1400000092
:100A10008400000000000020000000007047FEE796
:100A2000FEE7FEE7FEE7704770477047704700003B
:100A300000F00DF8002801D0FFF7B8FFAFF30080F9
:100A40000020AFF30080FFF748FC00F002F801201F
:100A5000704700F001B800000746384600F002F881
:100A6000FBE7000080B5AFF30080024A11001820B8
:100A7000ABBEFBE7260002000548014603B468460A
:100A800080F30988AFF30080FFF7A4FFFFF7D0FFE2
:100A9000A5EDF5FE3F065B4F666D7C077F67777CB3
:100AA000395E79710880000001488047014800479D
:100AB00091070008790A0008FFF7FEBFFFF7FEBFA5
:100AC000FFF7FEBFFFF7FEBFFFF7FEBFFFF7FEBF5A
:100AD000FFF7FEBFFFF7FEBFFFF7FEBFFFF7FEBF4A
:100AE000FFF7FEBFFFF7FEBFFFF7FEBFFFF7FEBF3A
:100AF000FFF7FEBFFFF7FEBFFFF7FEBFFFF7FEBF2A
:100B0000FFF7FEBFFFF7FEBFFFF7FEBFFFF7FEBF19
:100B1000FFF7FEBFFFF7FEBFFFF7FEBFFFF7FEBF09
:100B2000FFF7FEBFFFF7FEBFFFF7FEBFFFF7FEBFF9
:100B3000FFF7FEBFFFF7FEBFFFF7FEBFFFF7FEBFE9
:100B4000FFF7FEBFFFF7FEBFFFF7FEBFFFF7FEBFD9
:100B5000FFF7FEBFFFF7FEBFFFF7FEBFFFF7FEBFC9
:100B6000FFF7FEBFFFF7FEBFFFF7FEBFFFF7FEBFB9
:100B7000FFF7FEBFFFF7FEBFFFF7FEBFFFF7FEBFA9
:100B8000FFF7FEBFFFF7FEBFFFF7FEBFFFF7FEBF99
:100B9000FFF7FEBFFFF7FEBFFFF7FEBFFFF7FEBF89
:100BA000FFF7FEBFFFF7FEBFFFF7FEBFFFF7FEBF79
:100BB000FFF7FEBFFFF7FEBFFFF7FEBFFFF7FEBF69
:100BC000FFF7FEBFFFF7FEBFFFF7FEBFFFF7FEBF59
:100BD000FFF7FEBFFFF7FEBFFFF7FEBFFFF7FEBF49
:100BE000FFF7FEBFFFF7FEBFFFF7FEBFFFF7FEBF39
:080BF000FFF7FEBFFFF7FEBF97
:0400000508000A796C
:00000001FF
